:100000000C94DF0E0C940C0F0C940C0F0C940C0F32
:100010000C940C0F0C940C0F0C940C0F0C940C0FF4
:100020000C940C0F0C940C0F0C940C0F0C940C0FE4
:100030000C940C0F0C940C0F0C940C0F0C940C0FD4
:100040000C940C0F0C9456770C940C0F0C940C0F12
:100050000C940C0F0C940C0F0C94E0800C9469D44D
:100060000C940C0F0C94F22B0C940C0F0C940C0FA2
:100070000C940C0F0C940C0F0C940C0F0C940C0F94
:100080000C940C0F0C940C0F0C940C0F0C940C0F84
:100090000C940C0F0C940C0F0C940C0F0C94D4D2E9
:1000A0000C940C0F0C940C0F0C940C0F0C940C0F64
:1000B0000C940C0F0C940C0F0C940C0F0C940C0F54
:1000C0000C940C0F0C940C0F0C940C0F0C940C0F44
:1000D0000C940C0F0C940C0F0C940C0F0C940C0F34
:1000E0000C940C0F084AD73B3BCE016E84BCBFFD7D
:1000F000C12F3D6C74319ABD56833DDA3D00C77FF8
:1001000011BED9E4BB4C3E916BAAAABE0000008090
:100110003F05A84CCDB2D44EB93836A9020C50B91F
:10012000918688083CA6AAAA2ABE000000803F4DFE
:10013000383420582059205A2045006563686F3AAA
:100140000043616E6E6F7420656E74657220737506
:10015000626469723A20004D3234004D32332025FA
:1001600073006175746F25692E67004572726F7236
:100170003A006572726F722077726974696E6720D7
:10018000746F2066696C65004E6F74205553422071
:100190004472697665207072696E74696E67002FAB
:1001A00000555342206472697665207072696E74DE
:1001B000696E67206279746520002E0044656C6565
:1001C00074696F6E206661696C65642C2046696C89
:1001D000653A200046696C652064656C65746564E9
:1001E0003A002E006F70656E206661696C65642C44
:1001F0002046696C653A200057726974696E672001
:10020000746F2066696C653A20002E006F70656E11
:10021000206661696C65642C2046696C653A200033
:100220002E006F70656E206661696C65642C2046D7
:10023000696C653A200046696C652073656C65637E
:10024000746564002053697A653A200046696C65DC
:10025000206F70656E65643A20002E006F70656EC9
:10026000206661696C65642C2046696C653A2000E3
:10027000555342204472697665206F6B006F70653C
:100280006E526F6F74206661696C656400766F6C86
:10029000756D652E696E6974206661696C656400B0
:1002A00055534220447269766520696E69742066F0
:1002B00061696C006563686F3A0048617264636FDE
:1002C0006465642044656661756C7420536574745C
:1002D000696E6773204C6F616465640053746F725C
:1002E00065642073657474696E67732072657472D7
:1002F0006965766564002044002049002020204D77
:100300003330312050005049442073657474696E55
:1003100067733A00205A0020590020204D323036B1
:10032000205800486F6D65206F66667365742028DD
:100330006D6D293A00204500205A002058002042C7
:100340000020540020204D32303520530041647687
:10035000616E636564207661726961626C65733A8F
:1003600020533D4D696E2066656564726174652039
:10037000286D6D2F73292C20543D4D696E207472A9
:100380006176656C20666565647261746520286DB0
:100390006D2F73292C20423D6D696E696D756D203E
:1003A0007365676D656E742074696D6520286D7363
:1003B000292C20583D6D6178696D756D2058592044
:1003C0006A65726B20286D6D2F73292C20205A3D91
:1003D0006D6178696D756D205A206A65726B202891
:1003E0006D6D2F73292C2020453D6D6178696D75E9
:1003F0006D2045206A65726B20286D6D2F73290072
:1004000020540020204D3230342053004163636576
:100410006C65726174696F6E3A20533D6163636508
:100420006C65726174696F6E2C20543D72657472D4
:1004300061637420616363656C65726174696F6E7A
:1004400000204500205A0020590020204D32303134
:100450002058004D6178696D756D20416363656C4E
:1004600065726174696F6E20286D6D2F7332293A41
:1004700000204500205A0020590020204D32303302
:100480002058004D6178696D756D206665656472F0
:100490006174657320286D6D2F73293A0020450023
:1004A000205A0020590020204D3932205800537422
:1004B0006570732070657220756E69743A005365BB
:1004C0007474696E67732053746F726564004A7543
:1004D0006C20323520323031342030303A31353AE8
:1004E0003133006563686F3A004572726F723A008B
:1004F00053544F505045442E20005072696E74651D
:10050000722073746F707065642064756520746FF9
:10051000206572726F72732E204669782074686548
:10052000206572726F7220616E6420757365204D54
:1005300039393920746F20726573746172742E209A
:100540002854656D706572617475726520697320D9
:1005500072657365742E205365742069742061661A
:100560007465722072657374617274696E672900B4
:100570004B494C4C45442E20005072696E74657294
:100580002068616C7465642E206B696C6C2829206E
:1005900063616C6C656421006F6B00526573656EFE
:1005A000643A20002200556E6B6E6F776E20636F89
:1005B0006D6D616E643A2022004368616E6765204C
:1005C00066696C616D656E74007A5F6D61783A2062
:1005D000007A5F6D696E3A2000795F6D61783A202C
:1005E00000795F6D696E3A2000785F6D61783A201E
:1005F00000785F6D696E3A20005A3A00593A00203F
:10060000436F756E7420583A2000453A005A3A00FC
:10061000593A00583A004649524D574152455F4EAB
:10062000414D453A4D61726C696E2056313B205305
:100630007072696E7465722F6772626C206D61737F
:1006400068757020666F722067656E362046495265
:100650004D574152455F55524C3A687474703A2F69
:100660002F496E76656E7441506172742E636F6DA2
:100670002050524F544F434F4C5F56455253494FB1
:100680004E3A312E30204D414348494E455F545932
:1006900050453A5269676964426F74204558545214
:1006A000554445525F434F554E543A310A00426516
:1006B0006420646F6E652E0020423A0020453A00A7
:1006C000543A004265642048656174696E672E0083
:1006D00048656174696E6720646F6E652E002057EF
:1006E0003A0020453A00543A0048656174696E67E3
:1006F0002E2E2E002042403A0020403A00202F00AB
:1007000020423A00202F006F6B20543A00256920C8
:100710006D696E2C2025692073656300456E642029
:1007200066696C65206C69737400426567696E2048
:1007300066696C65206C697374004E6F206D6F760E
:10074000652E00526573756D696E67207072696EF3
:1007500074005761697420666F7220757365722E1C
:100760002E2E00536C6565702E2E2E0000007E43E9
:100770000000784300007E430000A0400000A0403D
:100780000000803FFFFFFF000000000000000000AD
:100790000000000000000000000000000000000059
:1007A000007E430000784300007E43256920686F87
:1007B000757273202569206D696E757465730044C8
:1007C0006F6E65207072696E74696E672066696C01
:1007D000650053544F505045442E20005072696EAE
:1007E0007465722073746F70706564206475652021
:1007F000746F206572726F72732E20466978207450
:100800006865206572726F7220616E642075736511
:10081000204D39393920746F207265737461727498
:100820002E202854656D706572617475726520693B
:10083000732072657365742E20536574206974206B
:1008400061667465722072657374617274696E6733
:1008500029006F6B004E6F204C696E65204E756DE0
:10086000626572207769746820636865636B73756D
:100870006D2C204C617374204C696E653A20004EDB
:100880006F20436865636B73756D207769746820AA
:100890006C696E65206E756D6265722C204C61739B
:1008A00074204C696E653A2000636865636B7375EC
:1008B0006D206D69736D617463682C204C61737475
:1008C000204C696E653A20004C696E65204E756D4E
:1008D000626572206973206E6F74204C617374209E
:1008E0004C696E65204E756D6265722B312C204C03
:1008F000617374204C696E653A20004D31313000CF
:10090000446F6E6520736176696E672066696C65F9
:100910002E006F6B004D3239002020506C616E6EDE
:10092000657242756666657242797465733A200035
:100930002046726565204D656D6F72793A20004AD8
:10094000756C203235203230313400436F6D706960
:100950006C65643A2000286E6F6E652C20646566B5
:1009600061756C7420636F6E6669672900207C2056
:10097000417574686F723A20004A756C20323520D8
:10098000323031342030303A31353A313500204C74
:1009900061737420557064617465643A2000312E6F
:1009A000302E30004D61726C696E200020536F66EE
:1009B00074776172652052657365740020576174A5
:1009C0006368646F67205265736574002042726FBC
:1009D000776E206F757420526573657400204578BA
:1009E0007465726E616C20526573657400506F7728
:1009F00065725570007374617274002200656E71C7
:100A00007565696E672022002200656E71756569E3
:100A10006E672022006563686F3A0020746F6F2054
:100A20006C6F6E6720657874727573696F6E207075
:100A3000726576656E7465640020636F6C64206512
:100A40007874727573696F6E2070726576656E74F6
:100A50006564007C3C3E5E2B3D3F2F5B5D3B2C2A5A
:100A6000225C0045313A200045303A20005A3A20B5
:100A700000593A2000583A20004D53312C4D533242
:100A80002050696E730A0024F404D9201BC40C5C46
:100A90000E9804C4095F0265077101F405F900FBB3
:100AA00004B30048048700C10369005803550003DC
:100AB000034500BE023A008402310053022A002995
:100AC00002250004022000E4011C00C8011900AF47
:100AD00001170098011400840113007101100061D6
:100AE00001100051010E0043010D0036010B002BD7
:100AF000010B0020010B00150109000C0109000386
:100B0000010800FB000800F3000800EB000700E408
:100B1000000600DE000600D8000600D2000600CC69
:100B2000000500C7000500C2000500BD000400B9B3
:100B3000000400B5000400B1000400AD000400A9E9
:100B4000000400A5000300A20003009F0004009B16
:100B5000000300980003009500020093000300903A
:100B60000003008D0002008B000300880002008655
:100B700000020084000300810002007F0002007D6B
:100B80000002007B0002007900020077000100767D
:100B90000002007400020072000100710002006F88
:100BA0000002006D0001006C0002006A0001006993
:100BB000000200670001006600010065000100649A
:100BC0000002006200010061000100600001005F9E
:100BD0000002005D0001005C0001005B0001005AA2
:100BE00000010059000100580001005700010056A3
:100BF00000010055000100540001005300000053A3
:100C00000001005200010051000100500001004F9E
:100C10000001004E0000004E0001004D0001004C9C
:100C20000001004B0000004B0001004A0001004998
:100C30000001004800000048000100470001004694
:100C4000000000460001004500000045000100448E
:100C50000001004300000043000100420000004288
:100C60000001004100000041000100400001003F80
:100C70000000003F0001003E0000003E0001003D7A
:100C80000000003D0001003C0000003C0000003C72
:100C90000001003B0000003B0001003A0000003A68
:100CA0000001003900000039000100380000003860
:100CB0000000003800010037000000370001003656
:100CC000000000360000003600010035000000354D
:100CD0000000003500010034000000340000003442
:100CE0000001003300000033000000330001003237
:100CF000000000320000003200010031000000312D
:100D00000000003100010030000000300000003021
:100D10000001002F0000002F0000002F0000002F16
:100D20000001002E0000002E0000002E0001002D0A
:100D30000000002D0000002D0000002D0001002CFF
:100D40000000002C0000002C0000002C0001002BF3
:100D50000000002B0000002B0000002B0001002AE7
:100D60000000002A0000002A0000002A00010029DB
:100D700000000029000000290000002900000029CF
:100D800000010028000000280000002800000028C2
:100D900000000028000100270000002700000027B5
:100DA00000000027000000270001002600000026A8
:100DB000000000260000002600000026000100259B
:100DC000000000250000002500000025000000258F
:100DD0000000002500010024000000240000002481
:100DE0000000002400000024000100230000002374
:100DF0000000002300000023000000230000002367
:100E00000000002300010022000000220000002258
:100E1000000000220000002200000022000100214A
:100E2000000000210000002100000021000000213E
:100E3000000000210000002100010020000000202F
:100E40000000002000000020000000200000002022
:100E500000000020000000200001001F0000001F13
:100E60000000001F0000001F0000001F0000001F06
:100E70000000001F0001001E0000001E0000001EF8
:100E80000000001E00000024F4D43050C38E20C2A5
:100E9000A24017828B7011127A910D816CD90AA829
:100EA00061E108C7586607615143061E4B5D05C1E5
:100EB00045A7041A411104093D98037139310340D3
:100EC00036DB0265339102D4305402802E1D02635A
:100ED0002CEE01752AC501B028A001102781018FD1
:100EE0002564012B244B01E0223401AC211F018D2C
:100EF000200D01801FFC00841EED00971DDF00B84F
:100F00001CD200E61BC600201BBC00641AB200B253
:100F100019A8000A19A0006A189900D11791004079
:100F2000178B00B516840031167E00B31579003A90
:100F3000157300C7146F0058146A00EE136600881A
:100F400013630025135E00C7125B006C1257001577
:100F5000125400C111510070114F0021114B00D6E5
:100F60001049008D1047004610440002104200C096
:100F70000F4000800F3E00420F3C00060F3B00CBAD
:100F80000E3800930E37005C0E3500270E3400F348
:100F90000D3200C10D3100900D3000600D2E003279
:100FA0000D2D00050D2C00D90C2B00AE0C29008551
:100FB0000C29005C0C2700350C27000E0C2600E8DD
:100FC0000B2400C40B2400A00B23007D0B23005A2C
:100FD0000B2100390B2100180B2000F80A1F00D943
:100FE0000A1E00BB0A1E009D0A1D00800A1D006328
:100FF0000A1C00470A1B002C0A1B00110A1A00F7E2
:10100000091A00DD091900C4091900AB0919009279
:101010000917007B091800630917004C09160036F0
:10102000091600200916000A091500F5081500E048
:10103000081400CC081400B8081400A40814009088
:101040000813007D0812006B0813005808120046B0
:1010500008120034081100230811001208110001C1
:10106000081100F0071000E0071000D0071000C0C2
:10107000071000B0070F00A107100091070E0083B2
:10108000070F0074070F0065070E0057070E004991
:10109000070E003B070D002E070E0020070D001362
:1010A000070D0006070D00F9060C00ED060D00E027
:1010B000060C00D4060C00C8060C00BC060C00B0E0
:1010C000060C00A4060B0099060C008D060B00828E
:1010D000060B0077060B006C060B0061060A005732
:1010E000060B004C060A0042060A0038060A002ECB
:1010F000060A0024060A001A060A0010060900075C
:10110000060A00FD050900F4050900EB050900E2E7
:10111000050900D9050900D0050900C7050900BE69
:10112000050900B5050800AD050800A50509009CE6
:10113000050800940508008C050800840508007C5B
:10114000050800740508006C050700650508005DCA
:10115000050700560508004E050700470507004033
:1011600005080038050700310507002A0507002398
:101170000507001C050600160507000F05070008F7
:1011800005060002050700FB040600F5040700EE53
:10119000040600E8040600E2040700DB040600D5AC
:1011A000040600CF040600C9040600C3040600BDFF
:1011B000040600B7040600B1040500AC040600A64E
:1011C000040600A00405009B040600950405009099
:1011D0000406008A04050085040500800406007AE0
:1011E00004050075040500700405006B0405006625
:1011F000040500610405005C040500570405005265
:101200000405004D04050048040500430405003EA4
:101210000404003A04050035040500300404002CE1
:1012200004050027040400230405001E0404001A1A
:1012300004040016040500110404000D0404000950
:101240000405000404040000040400FC030400F886
:10125000030400F4030400F0030400EC030400E8BA
:10126000030400E4030400E0030400DC030400D8EA
:10127000030400D4030400D0030400CC030400C81A
:10128000030300C50303006563686F3A00656E647D
:1012900073746F7073206869743A205A00205A3A48
:1012A00000656E6473746F7073206869743A2059B6
:1012B0000020593A00656E6473746F70732068691A
:1012C000743A20580020583A00656E6473746F7049
:1012D00073206869743A20004572726F723A004553
:1012E00072723A204D415854454D502042454400B9
:1012F00054656D706572617475726520686561749E
:10130000656420626564207377697463686564202E
:101310006F66662E204D415854454D5020747269B9
:10132000676765726564202121004572723A204D1D
:10133000494E54454D50003A2045787472756465A5
:1013400072207377697463686564206F66662E2007
:101350004D494E54454D50207472696767657265FA
:10136000642021004572723A204D415854454D5039
:10137000003A2045787472756465722073776974D9
:1013800063686564206F66662E204D415854454D54
:101390005020747269676765726564202100202D92
:1013A00020496E76616C6964206578747275646535
:1013B00072206E756D62657220210070012C0190A3
:1013C000012701B0012201C0011D01F00118011027
:1013D00002130130020E016002090190020401C0F3
:1013E00002FF000003FA004003F5008003F000D084
:1013F00003EB002004E6007004E100E004DC0040A0
:1014000005D700C005D2004006CD00D006C8008038
:1014100007C3003008BE00F008B900C009B400B02E
:101420000AAF00B00BAA00D00CA500000EA000501F
:101430000F9B00C01096005012910000148C00C049
:10144000158700B0178200B0197D00D01B7800000E
:101450001E730040206E0090226900F0246400405A
:10146000275F0090295A00E02B5500102E500020D5
:10147000304B0010324600E033410090353C001004
:1014800037370070383200A0392D00B03A2800A05C
:101490003B2300603C1E00103D1900903D140010DD
:1014A0003E0F00703E0A00C03E0500003F000050A5
:1014B0004944204175746F74756E652066696E6964
:1014C00073686564202120506C61636520746865D1
:1014D000204B702C204B6920616E64204B6420638C
:1014E0006F6E7374616E747320696E20746865200A
:1014F000636F6E66696775726174696F6E2E6800DE
:10150000504944204175746F74756E652066616939
:101510006C6564212074696D656F75740020403AB4
:10152000006F6B20543A006F6B20423A00504944E0
:10153000204175746F74756E65206661696C6564B1
:10154000212054656D706572617475726520746FC9
:10155000206869676800204B643A2000204B693A94
:101560002000204B703A200020436C617369632097
:1015700050494420002054753A2000204B753A20F1
:1015800000206D61783A2000206D696E3A200020BD
:10159000643A200020626961733A200058595A3A2F
:1015A00020004E4F00204269673A200053696E6761
:1015B0006C65004578743A2000323031342D303774
:1015C0002D3234002000312E3100462F573A2000B2
:1015D0005269676964426F74002D2D3A2D2D002DDC
:1015E0002D2D0055534200205900012000012000FC
:1015F00041626F75740053657474696E677300504F
:101600007265706172650054756E65004E6F20558D
:101610005342204472697665005072696E74206688
:10162000726F6D205553420053746F702050726971
:101630006E7400526573756D65205072696E74002A
:101640005061757365205072696E740052657374D1
:101650006F72652044656661756C7473004C6F61D0
:10166000642053657474696E67730053746F726598
:101670002053657474696E6773004D6F74696F6E83
:101680000054656D706572617475726500457374A0
:101690006570732F6D6D004573746570732F6D6D7C
:1016A000005A73746570732F6D6D005A7374657092
:1016B000732F6D6D005973746570732F6D6D0059C4
:1016C00073746570732F6D6D005873746570732F2C
:1016D0006D6D005873746570732F6D6D00412D72C0
:1016E00065747261637400412D7265747261637414
:1016F00000416D6178206500416D61782065004191
:101700006D6178207A00416D6178207A00416D61C9
:1017100078207900416D6178207900416D617820F1
:101720007800416D61782078005654726176206DA2
:10173000696E005654726176206D696E00566D694F
:101740006E00566D696E00566D6178206500566DAD
:101750006178206500566D6178207A00566D617859
:10176000207A00566D6178207900566D6178207975
:1017700000566D6178207800566D617820780056AB
:10178000652D6A65726B0056652D6A65726B005631
:101790007A2D6A65726B00567A2D6A65726B0056F7
:1017A00078792D6A65726B005678792D6A65726B4F
:1017B00000416363656C00416363656C005049449C
:1017C0002D43005049442D43005049442D440050BE
:1017D00049442D44005049442D49005049442D4965
:1017E000005049442D50005049442D500020022003
:1017F0004661637400200220466163740020022069
:101800004D6178002002204D6178002002204D6952
:101810006E002002204D696E004F6666004F6E20FC
:10182000004F6666004F6E20004175746F74656DE1
:101830007000507265686561742041425320436FA7
:101840006E66005072656865617420504C4120439B
:101850006F6E660053746F72652053657474696EA1
:1018600067730046616E2073706565640046616E43
:101870002073706565640048656174656420426525
:10188000640048656174656420426564004E6F7A47
:101890007A6C6531004E6F7A7A6C65310053746FE3
:1018A00072652053657474696E67730046616E20BB
:1018B00073706565640046616E20737065656400D1
:1018C00048656174656420426564004865617465BB
:1018D0006420426564004E6F7A7A6C6531004E6F09
:1018E0007A7A6C653100426564204C6576656C6976
:1018F0006E67004368616E67652066696C616D653F
:101900006E74004D6F76652041786973004865619B
:10191000742F436F6F6C004D616E75616C204A6F60
:101920006700476F204261636B004D6F766520480A
:1019300065616400436F6E74696E75650043686528
:10194000636B20457874656E7473004C6576656CC6
:101950002042656400526573756D6500526573754C
:101960006D6500202020003A200045004A6F672066
:101970004578747275646572002020005A3A200020
:101980004A6F67205A204178697300202000593A35
:101990002000202000583A20004A6F6720582F5915
:1019A0002041786973005072657373205220746F00
:1019B000207175697400542564004730205A2564ED
:1019C00020463130303030004730205A3000473028
:1019D0002058256420592564004730205A3000479C
:1019E000302058256420592564004730205A25644A
:1019F0002046313030303000473238004730205AEE
:101A0000256420463130303030004730205825647E
:101A100020592564004730205A2564204631303053
:101A2000303000436C65616E204E6F7A7A6C6500D1
:101A3000556E6C6F61642046696C616D656E7400F3
:101A40004C6F61642046696C616D656E74004E6513
:101A50007874204578747275646572202825647ED8
:101A600025642900436C65616E696E67204E6F7A4C
:101A70007A6C652E2E2E00556E6C6F61642046695F
:101A80006C616D656E742E2E2E004C6F6164204665
:101A9000696C616D656E742E2E2E004D38340044D5
:101AA000697361626C652053746570706572730050
:101AB0004D6F766520302E316D6D004D6F7665204F
:101AC000316D6D004D6F76652031306D6D004732A0
:101AD00038004175746F20486F6D65004A6F67204C
:101AE00041786973004578747275646572004D6F52
:101AF0007665205A004D6F76652059004D6F7665EA
:101B00002058004578747275646572005A00590057
:101B10005800473238004175746F20486F6D65007A
:101B20004A6F67204578747275646572004A6F6702
:101B300020582F59004A6F67205A0046616E207363
:101B4000706565640046616E207370656564004869
:101B5000656174656420426564004865617465640C
:101B600020426564004E6F7A7A6C6531004E6F7A60
:101B70007A6C653100436F6F6C646F776E005072E2
:101B80006568656174204142530050726568656103
:101B90007420504C41004D363030004368616E6710
:101BA000652066696C616D656E7400466C6F7700C8
:101BB000466C6F770046616E207370656564004601
:101BC000616E2073706565640048656174656420AA
:101BD0004265640048656174656420426564004E36
:101BE0006F7A7A6C6531004E6F7A7A6C653100538A
:101BF00070656564005370656564005072696E7449
:101C00002066726F6D20555342005072696E7420C9
:101C100066726F6D2055534200052E2E004D3234F2
:101C2000004D3233202573004D3834205820592080
:101C30005A2045005553422044726976652052650A
:101C40006D6F766564005553422044726976652055
:101C5000496E7365727465640000002100240027DA
:101C6000002A002D003000330001010000040107AC
:101C7000010A0100002200250028002B002E00315F
:101C800000340002010000050108010B01000020E2
:101C9000002300260029002C002F00320000010044
:101CA00000030106010901050505050705080808E7
:101CB00008020202020A0A080804040404010101DD
:101CC00001010101010303030303030303040707E5
:101CD000070C0C0C0C0C0C0C0C0202020206060683
:101CE00006060606060B0B0B0B0B0B0B0B0102106B
:101CF0002020080810204010204080020102010826
:101D000004020101020408102040808040201008D5
:101D1000040201800402018040201008040201082E
:101D2000040201010204081020408001020408108E
:101D30002040800000090A02080B0C0D070603046E
:101D40000100000000000000000000000000000092
:101D50000000000000000000000000000000001172
:101D6000100F000000000000000000000000000054
:101D7000000000000000000000494E46494E495452
:101D8000594E414ECDCCCC3D0AD7233C17B7D13864
:101D900077CC2B329595E6241FB14F0A00002041E5
:101DA0000000C84200401C4620BCBE4CCA1B0E5A54
:101DB000AEC59D74862C362F67B443D2312F1124C3
:101DC0001FBECFEFD1E2DEBFCDBF00E00CBF14E0FD
:101DD000A0E0B2E0ECE7FBEB01E00BBF02C0079034
:101DE0000D92A23AB107D9F71BBE11E1A2EAB4E005
:101DF00001C01D92A230B107E1F71DE1CCEBDDE19E
:101E000004C02297FE010E9464DDC43BD107C9F7DC
:101E10000E9476D70C94B2DD0C940000A0E0B0E0F4
:101E2000E4E1FFE00C9481DDEC015B0161157105DB
:101E300019F0FB0191838083F9908F2D90E00E942F
:101E400068DD892BC9F7FDE2FF1621F4F990EE2435
:101E5000E39405C02BE2F21609F4F990EE248E010A
:101E600001501040C80169E77DE143E050E072D2C3
:101E7000892BF9F48E010E5F1F4FC8016CE77DE1DD
:101E800045E050E067D2892B19F48E01095F1F4F9E
:101E9000A114B10419F0F50111830083E0FC04C022
:101EA00070E090E080E813C070E090E080E86FEFB1
:101EB00007C1C80161E87DE143E050E04BD2892BC6
:101EC00069F4A114B10429F470E090E080EC6FE7AC
:101ED000F7C02296F501D183C083F6CF88249924D8
:101EE00040E050E060E070E0EF2DE053EA30A0F514
:101EF000F2E0EF2A8E2D90E09C0128703070E2FE17
:101F000006C0232B79F50894811C911C2BC0232B30
:101F100019F0089481089108DB01CA0112E0880FCA
:101F2000991FAA1FBB1F1A95D1F7480F591F6A1F87
:101F30007B1F440F551F661F771F4E0F511D611DDC
:101F4000711D483929E9520729E9620729E1720719
:101F500048F084E0E82A06C0EE3F31F4E3FC39C0E3
:101F600098E0E92AF990C0CFE53311F0E53189F521
:101F700029912D3219F4E0E1EE2A05C02B3219F037
:101F800081E090E003C0299182E090E0E22FE053ED
:101F9000EA3018F0C81BD90B1CC020E030E0FCE090
:101FA00020383F075CF4C901880F991F880F991FDB
:101FB000280F391F220F331F2E0F311DE991E053D7
:101FC000EA3068F3E4FE03C0309521953F4F820E5E
:101FD000931ECE2CDD24E1FE07C0A114B10421F034
:101FE0002197F501D183C083CB01BA010E94CDD9DD
:101FF0007B018C01F3E0CF22DD2423E0C216D10463
:1020000021F417FB109517F9109557016801C801C5
:10201000B70120E030E040E050E00E942DD9882355
:1020200009F44AC097FE0DC028E9E22E2DE1F22EF8
:102030009094819491089394C0E2D0E000E010E085
:1020400012C090EBE92E9DE1F92EF6CFF701259114
:10205000359145915491C601B5010E940DDC5B019B
:102060006C018C1A9D0A8C169D0684F7D595C79530
:102070000F5F1F4F0630110529F08CEF9FEFE80E20
:10208000F91EF1CFC501D6017C018D018C2D880F81
:102090008D2D881F8F3F51F0C601B50120E030E043
:1020A00040E050E00E942DD9882331F482E290E094
:1020B00090930111809300117E2D9F2D802F612F11
:1020C000272F392F482F562FB901CA01CDB7DEB7B8
:1020D000ECE00C949DDD2F923F925F926F927F9285
:1020E0008F929F92AF92BF92CF92DF92EF92FF9228
:1020F0000F931F93CF93DF938C011B01EA016115AE
:10210000710519F0FB0191838083209749F0CE017E
:102110000297839728F020E030E040E050E0F6C0DE
:10212000F801A1908F018A2D90E00E9468DD892B33
:10213000B9F7FDE2AF1631F4F801A1908F015524F3
:10214000539407C0FBE2AF1619F4F801A1908F0178
:102150005524209719F0C031D105C1F4F0E3AF1632
:1021600079F4F8018081883711F0883549F4F80155
:10217000A1800E5F1F4FF2E05F2AC0E1D0E006C0F1
:10218000209721F480E3A816E9F427C0C830D105D0
:1021900031F1C930D10524F4C230D10531F50CC07C
:1021A000CA30D10589F0C031D105F9F4C12CD12C48
:1021B000E12CB8E0FB2E28C0C12CD12CE12CA0E4EE
:1021C000FA2E22C0CAE0D0E0FCECCF2EFCECDF2ED1
:1021D000FCECEF2EFCE0FF2E17C0C8E0D0E0C12CD5
:1021E000D12CE12CE0E1FE2E0FC09E01442737FDEB
:1021F0004095542F60E070E080E090E80E9425DD7B
:10220000C901DA016C017D0120E030E040E050E0DE
:1022100060E03E01882477FC8094982C70EDB72E06
:10222000BA0CE9E0EB1570F48A2D81548A3118F468
:1022300099ECB92E06C08A2D81568A3150F589EA6B
:10224000B82EBA0C8B2D90E08C179D0714F56F3FBC
:10225000E1F0C216D306E406F506B0F0CA01B901F2
:10226000A40193010E94DFDC9B01AC012B0D311D09
:10227000411D511D2130F0E03F07F0E04F07F0E82D
:102280005F0710F461E001C06FEFF801A1908F01CA
:10229000C5CF2114310481F0662331F00150104084
:1022A000F1011183008308C051FE1AC00250104092
:1022B000F1011183008314C067FF12C050FC05C0F8
:1022C0002FEF3FEF4FEF5FE704C020E030E040E04A
:1022D00050E882E290E0909301118093001116C0C3
:1022E00050FE08C050954095309521953F4F4F4F77
:1022F0005F4F0CC057FF0AC082E290E0909301113B
:10230000809300112FEF3FEF4FEF5FE7B901CA0154
:10231000DF91CF911F910F91FF90EF90DF90CF90C1
:10232000BF90AF909F908F907F906F905F903F9005
:102330002F900895FB01DC0105900D920020E1F73C
:102340000895FC0105900020E9F7809590958E0F87
:102350009F1F0895FB01DC014150504088F08D9192
:1023600081341CF08B350CF4805E659161341CF077
:102370006B350CF4605E861B611171F3990B089547
:10238000881BFCCFFB01DC014150504048F0059018
:102390000D920020C9F701C01D9241505040E0F756
:1023A0000895FB0155915523A9F0BF01DC014D9122
:1023B00045174111E1F759F4CD010590002049F08E
:1023C0004D9140154111C9F3FB014111EFCF81E05F
:1023D00090E001970895FB01DC0104C08D9101900C
:1023E000801921F441505040C8F7881B990B08957B
:1023F000FB01DC0102C001900D9241505040D8F722
:102400000895FB01DC010D900020E9F71197019080
:102410000D920020E1F70895FC018191861721F0CB
:102420008823D9F7992708953197CF010895FB01A3
:10243000DC0101900D920020E1F70895FB01DC0121
:102440004150504030F08D910190801919F40020D6
:10245000B9F7881B990B0895FB01DC0141505040EE
:1024600048F001900D920020C9F701C01D92415023
:102470005040E0F70895AEE0B0E0E1E4F2E10C9402
:1024800089DD0E891F898EE08C831A8309838FEF83
:102490009FE79E838D839E01265E3F4FCE0101966E
:1024A000688D798DA9010AD02F813885020F131FFD
:1024B000F80110822E96E4E00C94A5DDABE0B0E0CC
:1024C000E4E6F2E10C947BDD3C012B015A01FC01B6
:1024D00017821682838181FD03C06FEF7FEFB9C140
:1024E0009AE0892E1E010894211C311CF3012381DE
:1024F000F20123FD859123FF81912F01882309F4A7
:10250000A5C1853239F423FD859123FF81912F01E7
:10251000853221F490E0B301B7D1E8CF982FFF24A2
:10252000EE249924FFE1FF15D0F09B3269F09C3234
:1025300028F4903259F0933291F40EC09D3249F054
:10254000903369F441E024C052E0F52A84E0F82A8F
:1025500028C098E0F92A25C0E0E1FE2A22C0F7FC55
:1025600029C0892F80538A3070F4F6FE05C0989CEC
:10257000902C1124980E15C0E89CE02C1124E80E34
:10258000F0E2FF2A0EC09E3229F4F6FC5FC140E45F
:10259000F42A07C09C3619F450E8F52A02C0983690
:1025A00049F4F20123FD959123FF91912F01992385
:1025B00009F0B8CF892F8554833018F080528330CA
:1025C00038F444E050E0A40EB51E5FE359830FC019
:1025D000933631F0933779F0933509F052C01FC02C
:1025E000F5018081898342E050E0A40EB51E6101AF
:1025F00001E010E011C0F501C080D180F6FC03C0FD
:102600006FEF7FEF02C0692D70E042E050E0A40E52
:10261000B51EC6012ED18C015FE7F52213C0F5016E
:10262000C080D180F6FC03C06FEF7FEF02C0692D40
:1026300070E042E050E0A40EB51EC6010FD18C013F
:1026400050E8F52AF3FE06C018C080E290E0B3011E
:102650001BD1EA948E2D90E008171907B0F30DC036
:10266000F601F7FC8591F7FE81916F0190E0B301CF
:102670000BD1E110EA94015010400115110581F7CA
:10268000E2C0943611F0993661F5F7FE08C0F50105
:10269000208131814281538184E090E00AC0F501BC
:1026A000808191819C01442737FD4095542F82E021
:1026B00090E0A80EB91E9FE6F92257FF09C0509579
:1026C0004095309521953F4F4F4F5F4FE0E8FE2AF0
:1026D000CA01B901A1012AE030E002D1D82ED218F6
:1026E0003FC0953729F41F2D1F7E2AE030E01DC022
:1026F0001F2D197F9F3661F0903720F4983509F02F
:10270000A5C00FC0903739F0983709F09FC004C0BA
:1027100028E030E00AC0106114FD146020E130E0D0
:1027200004C014FD166020E132E017FF08C0F50177
:10273000608171818281938144E050E008C0F5019D
:1027400080819181BC0180E090E042E050E0A40EE5
:10275000B51EA101C5D0D82ED2188FE7F82EF122D0
:10276000F6FE0BC05EEFF522D91438F4F4FE07C074
:10277000F2FC05C08FEEF82202C01D2D01C0192DFC
:10278000F4FE0DC0FE01ED0DF11D8081803319F4C2
:1027900099EEF92208C01F5FF2FE05C003C08F2D1D
:1027A000867809F01F5F0F2DF3FC13C0F0FE0EC0FA
:1027B0001E1510F09D2C0AC09D2C9E0C911A1E2DEA
:1027C00005C080E290E0B3015FD01F5F1E15C8F323
:1027D00004C01E1510F4E11A01C0EE2404FF0EC05F
:1027E00080E390E0B30150D002FF1BC001FD03C0A5
:1027F00088E790E00EC088E590E00BC0802F8678D7
:1028000081F001FF02C08BE201C080E2F7FC8DE2A3
:1028100090E0B30139D005C080E390E0B30134D03B
:102820009A94D914C8F3DA94F101ED0DF11D808169
:1028300090E0B30129D0DD20B1F705C080E290E03F
:10284000B30122D0EA94EE20C9F750CEF30166819D
:102850007781CB012B96E2E10C9497DDFC0105908A
:10286000615070400110D8F7809590958E0F9F1F92
:102870000895FC016150704001900110D8F78095D7
:1028800090958E0F9F1F08950F931F93CF93DF9303
:102890008C01EB018B8181FF1BC082FF0DC02E815B
:1028A0003F818C819D812817390764F4E881F98183
:1028B0000193F983E88306C0E885F985802F19958F
:1028C000892B31F48E819F8101969F838E8302C074
:1028D0000FEF1FEFC801DF91CF911F910F91089566
:1028E000FA01AA27283051F1203181F1E8946F9341
:1028F0006E7F6E5F7F4F8F4F9F4FAF4FB1E03ED0E7
:10290000B4E03CD0670F781F891F9A1FA11D680F84
:10291000791F8A1F911DA11D6A0F711D811D911DB7
:10292000A11D20D009F468943F912AE0269F11242C
:102930003019305D3193DEF6CF010895462F477090
:10294000405D4193B3E00FD0C9F7F6CF462F4F70EB
:10295000405D4A3318F0495D31FD4052419302D049
:10296000A9F7EACFB4E0A6959795879577956795EF
:10297000BA95C9F700976105710508959B01AC01EF
:102980000A2E06945795479537952795BA95C9F716
:10299000620F731F841F951FA01D0895FC011282F2
:1029A00013820895FC018381882311F081E08283E2
:1029B0000895FC018281811112820895CF93DF93E3
:1029C000DC01AC59BF4F8C91A456B040825082308C
:1029D00050F1ED01CF59DF4FFD01E058FF4F8BE182
:1029E000019009928150E1F7FD01E15AFF4FA25891
:1029F000BF4F8D919C911197AE57B04091838083CA
:102A0000ED01C058DF4FFD01E156FF4F8BE1019012
:102A100009928150E1F7A356BF4F8D919C91119778
:102A20005F978D939C93DF91CF910895FC018EE188
:102A300094E0918380838781882321F0CF010496DD
:102A40000C94756908950F931F93CF93DF938C01B6
:102A50000E943B770E941877C8018F519F4F0E94B8
:102A60007569F80112828FE291E00E942B4E8091ED
:102A70002E0A882301F110922E0A80916406C82F35
:102A8000D0E0CC0FDD1FC65FD04F688179818827E9
:102A900077FD8095982F0E94CFD920915E033091C9
:102AA0005F0340916003509161030E943BDB181665
:102AB00014F419821882DF91CF911F910F9108951C
:102AC000CF92DF92EF92FF920F931F93DF93CF93FA
:102AD000CDB7DEB76F970FB6F894DEBF0FBECDBF90
:102AE0008C016B010C591F4FD8018C91045610407A
:102AF000882321F42CE3E22EF12C03C09DE5E92E7E
:102B0000F12CE00EF11E8EE194E09A8389831C8201
:102B10001B8218861D82B7016C5F7F4FCE01059620
:102B2000A60121E00E946170882391F5EBE3F1E0BA
:102B3000949108C08091C00085FFFCCF9093C6009F
:102B4000319694919923B1F7E1E4F1E0949108C0B2
:102B50008091C00085FFFCCF9093C6003196949180
:102B60009923B1F709C08091C00085FFFCCF08947C
:102B7000C11CD11C9093C600F6019081992399F74E
:102B80008091C00085FFFCCF8AE08093C6003CC0E6
:102B9000D801A156BF4FF801E058FF4F8BE10190DB
:102BA0000D928150E1F7F801E356FF4F02581F4F95
:102BB000D8018D919C910E57104091838083D8014C
:102BC000A058BF4FF70134968BE101900D928150D0
:102BD000E1F702581F4FF70182819381D8018D934D
:102BE0009C930E571040D801AF59BF4FFE01359648
:102BF0008BE101900D928150E1F7015A1F4F8B81BB
:102C00009C81F80191838083CE0101960FDF6F963E
:102C10000FB6F894DEBF0FBECDBFCF91DF911F91ED
:102C20000F91FF90EF90DF90CF900895EF92FF9279
:102C30000F931F938C0131EEE32EF12CE80EF91E59
:102C4000C7010E942669C7010E947569F8011082B8
:102C500011821F910F91FF90EF9008950F931F9392
:102C6000FC01E05CFF4F108233961082E354F04089
:102C700017AE16AE2EE134E035AF24AFEF59FF4F5B
:102C800010823396108235971182108232932293EC
:102C9000B396108233961082359711821082329348
:102CA0002293B39610823396108235971182108248
:102CB00032932293B09689E180833396108278967E
:102CC00010823B96108233961082359711821082C3
:102CD000329322937F961082118212821382389649
:102CE0001082118212821382E450F1401282138208
:102CF000108211828F0100501F4FD8011D921D922A
:102D00001D921C921397E85FFE4F81E08083E8508C
:102D1000F14013AE12AE0E94B1D468577C4E8F4F73
:102D20009F4FF80160837183828393831F910F917A
:102D30000895CF92DF92EF92FF920F931F93CF935C
:102D4000DF937C016B01DB010D900020E9F78D0121
:102D500001501040061B170BE1EEF0E0EE0EFF1ED7
:102D6000D7011C92EFE1FFEFEE0EFF1ECB016EE4E8
:102D700070E052DBEC01009731F4F8013197EC0D73
:102D8000FD1D86010CC060E270E046DB8C010F5F28
:102D90001F4FCE016AE270E03FDBFC0131978DE00E
:102DA00081838AE082831382C70183529F4FB801D7
:102DB0000E945A7181EE90E0E80EF91ED7018C91C5
:102DC000882319F1EBE6F1E0949108C08091C000EE
:102DD00085FFFCCF9093C600319694919923B1F76B
:102DE000E2E7F1E0949108C08091C00085FFFCCF3C
:102DF0009093C600319694919923B1F78091C000C9
:102E000085FFFCCF8AE08093C600DF91CF911F91B0
:102E10000F91FF90EF90DF90CF900895CF93DF93C5
:102E2000EC018B81882309F43BC0E1EAF1E0949145
:102E300008C08091C00085FFFCCF9093C6003196FA
:102E400094919923B1F7CC5FDE4F488159816A8113
:102E50007B81C450D14086E295E02AE030E00E94B8
:102E60001F2DEFE9F1E0949108C08091C00085FF2B
:102E7000FCCF9093C600319694919923B1F7C4503A
:102E8000DF4F488159816A817B8186E295E02AE0A3
:102E900030E00E941F2D8091C00085FFFCCF12C042
:102EA000E8E8F1E0949108C08091C00085FFFCCF74
:102EB0009093C600319694919923B1F78091C00008
:102EC00085FFFCCF8AE08093C600DF91CF91089503
:102ED0002F923F924F925F926F927F928F929F922A
:102EE000AF92BF92CF92DF92EF92FF920F931F9318
:102EF000DF93CF93CDB7DEB7AC970FB6F894DEBFB4
:102F00000FBECDBF5C014B01FC018381882309F416
:102F100034C1C5018F519F4F0E947569F50112821E
:102F20001A8A1D8A198A188A8EE194E09F878E87F3
:102F30005BE5C52ED12CCA0CDB1C2CE330E0A20EC5
:102F4000B31EF601B182A08224EC3FEFA20EB31EA5
:102F5000F40180818F3209F08DC0C4016FE270E00E
:102F60005BDA7C010894E11CF11C3E010894611CB1
:102F7000711C260142E1242E312C2C0E3D1E75C001
:102F8000C7016FE270E048DA6C01009709F480C075
:102F9000E816F90608F07CC08C010E191F09C30160
:102FA000B701A80159DA060D171DF8011082F301C7
:102FB00007C08091C00085FFFCCF31969093C6007A
:102FC00090819923B1F78091C00085FFFCCFFAE092
:102FD000F093C600F201608171816115710519F4E9
:102FE00060E070E002C06C5F7F4FC101A30121E08F
:102FF0000E946170882371F5E4EEF1E0949108C0BD
:103000008091C00085FFFCCF9093C60031969491CB
:103010009923B1F7FE01319607C08091C00085FF6A
:10302000FCCF31969093C60090819923B1F7E2EEE0
:10303000F1E0949108C08091C00085FFFCCF90938F
:10304000C600319694919923B1F78091C00085FF15
:10305000FCCF8DC02EE030E02C0F3D1FF2013183FC
:10306000208376010894E11CF11CE114F10409F0BD
:1030700087CF0BC08DE590E0A80EB91EF601B18296
:10308000A08223EA3FEFA20EB31ED82C092D02C066
:10309000DE2C0F2D8BE590E0A80EB91EF501808186
:1030A000918125EA3FEFA20EB31E009719F480E04C
:1030B00090E001C004966D2D702F0E942D71882321
:1030C00039F1E4EDF1E0949108C08091C00085FFF2
:1030D000FCCF9093C600319694919923B1F78D2D32
:1030E000902F9C01F90107C08091C00085FFFCCFA3
:1030F00031969093C60090819923B1F784E091E0D6
:10310000A80EB91EF501108211821282138232C0FC
:10311000ECEBF1E0949108C08091C00085FFFCCFFA
:103120009093C600319694919923B1F78D2D902FED
:103130009C01F90107C08091C00085FFFCCF31964A
:103140009093C60090819923B1F7EAEBF1E0949156
:1031500008C08091C00085FFFCCF9093C6003196D7
:1031600094919923B1F78091C00085FFFCCF8AE04C
:103170008093C600CE010E9659DCAC960FB6F8943B
:10318000DEBF0FBECDBFCF91DF911F910F91FF909A
:10319000EF90DF90CF90BF90AF909F908F907F90F7
:1031A0006F905F904F903F902F9008952F923F9295
:1031B0004F925F926F927F928F929F92AF92BF9247
:1031C000CF92DF92EF92FF920F931F93DF93CF93F3
:1031D000CDB7DEB7AD970FB6F894DEBF0FBECDBF4B
:1031E0005C014B014DA7FC018381882309F4E4C1F4
:1031F00071EE472E512C4A0C5B1CC2010E9475696E
:10320000F50112821A8A1D8A198A188A8EE194E0C1
:103210009F878E876BE5C62ED12CCA0CDB1C8CE3F6
:1032200090E0A80EB91EF601B182A08284EC9FEF57
:10323000A80EB91EF40180818F3209F089C0C40143
:103240006FE270E0E9D87C010894E11CF11C3E01BA
:103250000894611C711C160176C0C7016FE270E012
:10326000DBD86C01009709F481C0E816F90608F074
:103270007DC08C010E191F09C301B701A801ECD84C
:10328000060D171DF8011082F30107C08091C000E0
:1032900085FFFCCF31969093C60090819923B1F7BA
:1032A0008091C00085FFFCCFFAE0F093C600F101E9
:1032B000608171816115710519F460E070E002C0F0
:1032C0006C5F7F4FCE014296A30121E00E946170A6
:1032D000882371F5ECE5F2E0949108C08091C0007C
:1032E00085FFFCCF9093C600319694919923B1F756
:1032F000FE01319607C08091C00085FFFCCF31965A
:103300009093C60090819923B1F7EAE5F2E0949199
:1033100008C08091C00085FFFCCF9093C600319615
:1033200094919923B1F78091C00085FFFCCF15C11E
:103330008EE090E08C0F9D1FF101918380837601D8
:103340000894E11CF11CE114F10409F086CF0BC0D4
:10335000EDE5F0E0AE0EBF1EF601B182A08283EA79
:103360009FEFA80EB91E082DF92C01C00E2DF501F6
:10337000E55AFF4F9DA5992309F4ADC06081718185
:103380006115710519F460E070E002C06C5F7F4F59
:10339000C201402F5F2D21E00E946170882309F453
:1033A0006AC0E2EFF0E0AE0EBF1EF5014081518130
:1033B000628173818AE090E0A80EB91EF501408316
:1033C00051836283738384E09FEFA80EB91EECE4FF
:1033D000F2E0949108C08091C00085FFFCCF9093EB
:1033E000C600319694919923B1F7802F9F2D9C01AF
:1033F000F90107C08091C00085FFFCCF3196909302
:10340000C60090819923B1F7E4E4F2E0949108C0FA
:103410008091C00085FFFCCF9093C60031969491B7
:103420009923B1F786E295E02AE030E00E941F2D53
:103430008091C00085FFFCCF8AE08093C600E4E065
:10344000F1E0AE0EBF1EF5011082118212821382CE
:10345000E6E3F2E0949108C08091C00085FFFCCFC4
:103460009093C600319694919923B1F78091C00052
:1034700085FFFCCF97C0E2E2F2E0949108C0809112
:10348000C00085FFFCCF9093C6003196949199239C
:10349000B1F7802F9F2D9C01F90107C08091C000DA
:1034A00085FFFCCF31969093C60090819923B1F7A8
:1034B000E0E2F2E0949108C08091C00085FFFCCF6B
:1034C0009093C600319694919923B1F78091C000F2
:1034D00085FFFCCF42C0608171816115710519F4CF
:1034E00060E070E002C06C5F7F4FC201402F5F2D33
:1034F00026E50E946170882309F033C0ECE0F2E019
:10350000949108C08091C00085FFFCCF9093C600C5
:10351000319694919923B1F7802F9F2D9C01F90149
:1035200007C08091C00085FFFCCF31969093C60004
:1035300090819923B1F7EAE0F2E0949108C080917C
:10354000C00085FFFCCF9093C600319694919923DB
:10355000B1F78091C00085FFFCCF8AE08093C60060
:1035600028C081E0F5018083E8EFF1E0949108C084
:103570008091C00085FFFCCF9093C6003196949156
:103580009923B1F7F40107C08091C00085FFFCCFFB
:1035900031969093C60090819923B1F78091C00035
:1035A00085FFFCCF8AE08093C600802F9F2D0E946C
:1035B000DDB4CE010E963ADAAD960FB6F894DEBFC2
:1035C0000FBECDBFCF91DF911F910F91FF90EF9074
:1035D000DF90CF90BF90AF909F908F907F906F9033
:1035E0005F904F903F902F900895FC0181E0818380
:1035F000CF0140E0DBCDEF92FF920F931F93CF936B
:10360000DF93EC011B82CD5BDF4F8881C354D04038
:10361000882329F0CE01805C9F4F0E947569EAEBF8
:10362000EE2EF12CEC0EFD1EC70163E045E30E9477
:103630002267882309F5EBE3F1E0949108C08091BB
:10364000C00085FFFCCF9093C600319694919923DA
:10365000B1F7E0EAF2E0949108C08091C00085FFE4
:10366000FCCF9093C600319694919923B1F7809145
:10367000C00085FFFCCF7DC08E0101541F4FC801E3
:10368000B70141E00E94EB71882341F5C801B70101
:1036900040E00E94EB71882309F5EBE6F1E094919C
:1036A00008C08091C00085FFFCCF9093C600319682
:1036B00094919923B1F7EDE8F2E0949108C08091DC
:1036C000C00085FFFCCF9093C6003196949199235A
:1036D000B1F78091C00085FFFCCF4BC0CE01805C6C
:1036E0009F4FB8010E94676C882309F5EBE6F1E073
:1036F000949108C08091C00085FFFCCF9093C600D4
:10370000319694919923B1F7EDE7F2E0949108C0D6
:103710008091C00085FFFCCF9093C60031969491B4
:103720009923B1F78091C00085FFFCCF22C081E0D2
:103730008B83EBE3F1E0949108C08091C00085FF9A
:10374000FCCF9093C600319694919923B1F7E0E7AE
:10375000F2E0949108C08091C00085FFFCCF909367
:10376000C600319694919923B1F78091C00085FFEE
:10377000FCCF8AE08093C600DE01AF59BF4FFE0147
:10378000E05CFF4F8BE101900D928150E1F78EAD2F
:103790009FADC15ADF4F99838883CF55D040CE016A
:1037A000CC96C55ADF4F99838883DF91CF911F91C3
:1037B0000F91FF90EF9008952F923F924F925F925A
:1037C0006F927F929F92AF92BF92CF92DF92EF92D1
:1037D000FF920F931F93DF93CF93CDB7DEB7CC55F6
:1037E000D0400FB6F894DEBF0FBECDBF6C0166238C
:1037F00011F528E031E0C20ED31ED6018C91E8EF1E
:10380000FEEFCE0EDF1E882309F4E3C020E031E096
:10381000C20ED31ED601ED90FD900D911C91E0E0FB
:10382000FFEFCE0EDF1E0E94B1D4E616F7060807A2
:10383000190708F4CEC028E031E0C20ED31ED6012D
:103840001C92E8EFFEEFCE0EDF1ED60113968C9190
:10385000882339F4C601CFDEF6018381882309F479
:10386000B8C000D000D0EDB7FEB731967E01089405
:10387000E11CF11CADB7BEB71296FC92EE92119707
:1038800082E691E093838283D601DA968D919C91B2
:10389000DB97958384830E943B128701EDB7FEB7C7
:1038A00036960FB6F894FEBF0FBEEDBF57010AC0A3
:1038B000D8018C91992787FD90950E9470DDF801C1
:1038C00081938F01F50101900020E9F73197EA1902
:1038D000FB09802F8E198E175CF310E4A12EB12CFA
:1038E000AC0CBD1CC50140E050E060E070E00E94FF
:1038F0005C689924BDE3EB2EF12CEC0EFD1E2E012D
:103900000894411C511CAFE16A2E712C6C0E7D1E77
:10391000FBE52F2EF1E03F2E42C0D8018C9190E0C4
:103920000E9470DDF80181938F01D7010D90002076
:10393000E9F71197AE19BF09802F8E198A176CF31A
:1039400027968FAD27978E3751F1C701B20145E019
:1039500050E00E941E12009711F500D000D0EDB784
:10396000FEB73196ADB7BEB712967C926E921197A4
:1039700033822282558244820E943B12EDB7FEB709
:1039800036960FB6F894FEBF0FBEEDBFC3010E947E
:10399000A44E87E591E00E942B4E99249394C50193
:1039A000B70140E050E00E94866B181614F48701BE
:1039B000BCCF992041F48FEF9FEFD601DB969C930B
:1039C0008E93DA9706C0F60182AD93AD019693AF60
:1039D00082AFC45ADF4F0FB6F894DEBF0FBECDBF23
:1039E000CF91DF911F910F91FF90EF90DF90CF90DB
:1039F000BF90AF909F907F906F905F904F903F905F
:103A00002F9008952F923F924F925F926F927F92E4
:103A10008F929F92AF92BF92CF92DF92EF92FF92DE
:103A20000F931F93DF93CF93CDB7DEB7CF58D0401E
:103A30000FB6F894DEBF0FBECDBF8C013B016A010B
:103A400084E090E0C80ED91EF8017196C757DF4F89
:103A5000F983E883C958D040C8010496CA57DF4F9C
:103A600099838883C658D040C857DF4F1882C858FA
:103A7000D04046E6E42EF12CEC0EFD1EF7013B96FD
:103A8000C557DF4FF983E883CB58D04039E0832E08
:103A900031E0932E800E911E2BE0A22E21E0B22E5B
:103AA000A00EB11E9EE0292E312C2C0E3D1E87E467
:103AB000482E512C4C0E5D1EC2010496C357DF4F99
:103AC00099838883CD58D040EBE3F1E09491C157BE
:103AD000DF4F9883CF58D0404EC1F7018385482FE0
:103AE00050E0BA01687170706031710509F051C120
:103AF000F401208131812130310509F44AC122309D
:103B0000310509F446C1F701DE011196908190322A
:103B100039F08E2F8E19883011F48EE28D939D939B
:103B20003196C557DF4F88819981CB58D040E8172F
:103B3000F90761F71C921E86F3018081882329F41E
:103B4000C10160E072E00E940112C101B3010E9454
:103B50000112C101BE016F5F7F4F0E940112C101BE
:103B600060E072E00E9401121CA61FA61BA61AA606
:103B70008EE194E099A788A7CE018C96B601AE019C
:103B80004F5F5F4F21E00E946170882309F03FC0C2
:103B9000F40180819181892BD1F5C157DF4F988144
:103BA000CF58D040EBE3F1E008C08091C00085FF22
:103BB000FCCF9093C600319694919923B1F7E2E03F
:103BC000F2E007C08091C00085FFFCCF3196909352
:103BD000C60090819923B1F78091C00085FFFCCF8A
:103BE000FAE0F093C600FE01319607C08091C00054
:103BF00085FFFCCF31969093C60090819923B1F751
:103C00008091C00085FFFCCF8AE08093C600C35737
:103C1000DF4FA881B981CD58D040FE01BC968BE121
:103C200001900D928150E1F78AA59BA5F201938343
:103C300082838EE194E091838083C801B101A20167
:103C4000E1DEC2010E941615CE0188960E9416156B
:103C500092C0953E09F48FC09E3209F48CC09F3506
:103C600009F489C0F8019189992331F09E3209F451
:103C700082C09F3509F47FC043FD7DC080E0603184
:103C8000710509F481E0F80181AF882349F4F70157
:103C90008085873409F06FC081858E3709F46BC049
:103CA000CA57DF4FA881B981C658D040F70180813B
:103CB000803241F08E2F8E19883011F48EE28D9370
:103CC00080818D933196C557DF4F88819981CB587C
:103CD000D040E817F90759F71C92F40180819181CF
:103CE000009729F5F30107C08091C00085FFFCCF44
:103CF00031969093C60090819923B1F7CA57DF4F50
:103D0000E881F981C658D04007C08091C00085FF86
:103D1000FCCF31969093C60090819923B1F78091A2
:103D2000C00085FFFCCFFAE0F093C60024C08130CC
:103D3000910539F4F5018081918101969183808309
:103D40001AC00297C1F4C857DF4FF881C858D04055
:103D50002F2F30E0F5018081918128173907F1F08C
:103D6000C857DF4FF881C858D040FF5FC857DF4FB2
:103D7000F883C858D040C601B701C757DF4F488104
:103D80005981C958D0400E94866B18160CF4A5CEF4
:103D900005C0F7019081992309F05BCFC157DF4F30
:103DA0000FB6F894DEBF0FBECDBFCF91DF911F914C
:103DB0000F91FF90EF90DF90CF90BF90AF909F90CA
:103DC0008F907F906F905F904F903F902F900895CD
:103DD000EF92FF920F931F93DF93CF93CDB7DEB790
:103DE0006F970FB6F894DEBF0FBECDBF7C018C017C
:103DF000055A1F4F835A9F4FF8019183808329E012
:103E000031E0E20EF31E21E030E0F701219331931F
:103E10007F011182108225EF3EEFE20EF31E049621
:103E200040E050E060E070E00E945C68F8012081B2
:103E30003181DE011596F90134968BE101900D92E6
:103E40008150E1F7F901828193819C838B838EE11C
:103E500094E09A838983C70165E172E08E010F5F68
:103E60001F4FA801CFDDC8010E941615F701E55FBD
:103E7000FE4F808191816F960FB6F894DEBF0FBE22
:103E8000CDBFCF91DF911F910F91FF90EF900895DB
:103E9000EF92FF920F931F93DF93CF93CDB7DEB7CF
:103EA0006F970FB6F894DEBF0FBECDBF7C018C01BB
:103EB000055A1F4F835A9F4FF8019183808329E051
:103EC00031E0E20EF31E22E030E0F701318320837F
:103ED00027EF3EEFE20EF31EF701E55FFE4F608332
:103EE0001182049640E050E060E070E00E945C685F
:103EF000F80120813181DE011596F90134968BE1BC
:103F000001900D928150E1F7F901828193819C83A8
:103F10008B838EE194E09A838983C70165E172E027
:103F20008E010F5F1F4FA8016DDDC8010E9416159D
:103F30006F960FB6F894DEBF0FBECDBFCF91DF9165
:103F40001F910F91FF90EF900895EF92FF920F93C2
:103F50001F93DF93CF93CDB7DEB76F970FB6F8946B
:103F6000DEBF0FBECDBF7C0189E091E0E80EF91EF7
:103F7000F7011182108287EF9EEFE80EF91E87018C
:103F8000005C1F4FC80140E050E060E070E00E941C
:103F90005C68DE011596F8018BE101900D9281506D
:103FA000E1F7F70186AD97AD9C838B838EE194E0BA
:103FB0009A838983C70165E172E08E010F5F1F4F0D
:103FC000A80120DDC8010E9416156F960FB6F8945F
:103FD000DEBF0FBECDBFCF91DF911F910F91FF903C
:103FE000EF900895DF93CF93CDB7DEB72A970FB642
:103FF000F894DEBF0FBECDBF4EEC54E020E030E0C1
:1040000005C0992787FD9095280F391FFA014F5F4A
:104010005F4F84918823A9F73A8329838091160200
:1040200090911702A0911802B09119028B839C8382
:10403000AD83BE83FE01339684E690E02081F9993A
:10404000FECF1FBA92BD81BD20BD0FB6F894FA9A7B
:10405000F99A0FBE01968836910511F03196EECF90
:10406000FE0131962081F999FECF1FBA92BD81BD24
:1040700020BD0FB6F894FA9AF99A0FBE01968A36C7
:10408000910579F7E2EDF9E02081F999FECF1FBAA9
:1040900092BD81BD20BD0FB6F894FA9AF99A0FBE71
:1040A00001968A37910511F03196EECFE2ECF9E0F6
:1040B0002081F999FECF1FBA92BD81BD20BD0FB6F8
:1040C000F894FA9AF99A0FBE01968A38910511F080
:1040D0003196EECFE2EEF9E02081F999FECF1FBADA
:1040E00092BD81BD20BD0FB6F894FA9AF99A0FBE21
:1040F00001968A39910511F03196EECFE6EFF9E09D
:104100002081F999FECF1FBA92BD81BD20BD0FB6A7
:10411000F894FA9AF99A0FBE01968E39910511F02A
:104120003196EECFEAEFF9E02081F999FECF1FBA80
:1041300092BD81BD20BD0FB6F894FA9AF99A0FBED0
:104140000196823A910511F03196EECFE2EFF9E057
:104150002081F999FECF1FBA92BD81BD20BD0FB657
:10416000F894FA9AF99A0FBE0196863A910511F0E1
:104170003196EECFEAE0FAE02081F999FECF1FBA3E
:1041800092BD81BD20BD0FB6F894FA9AF99A0FBE80
:1041900001968A3A910511F03196EECFEEEBF9E0F7
:1041A0002081F999FECF1FBA92BD81BD20BD0FB607
:1041B000F894FA9AF99A0FBE01968E3A910511F089
:1041C0003196EECFEEEFF9E02081F999FECF1FBADC
:1041D00092BD81BD20BD0FB6F894FA9AF99A0FBE30
:1041E0000196823B910511F03196EECFE2E0FAE0C4
:1041F0002081F999FECF1FBA92BD81BD20BD0FB6B7
:10420000F894FA9AF99A0FBE0196863B910511F03F
:104210003196EECFE6E0FAE02081F999FECF1FBAA1
:1042200092BD81BD20BD0FB6F894FA9AF99A0FBEDF
:1042300001968A3B910511F03196EECFECE4F6E061
:104240002081F999FECF1FBA92BD81BD20BD0FB666
:10425000F894FA9AF99A0FBE0196863C910511F0EE
:104260003196EECFEEE9FFE02081F999FECF1FBA3B
:1042700092BD81BD20BD0FB6F894FA9AF99A0FBE8F
:104280000196883C910511F03196EECFE0EAFFE00F
:104290002081F999FECF1FBA92BD81BD20BD0FB616
:1042A000F894FA9AF99A0FBE01968A3C910511F09A
:1042B0003196EECFE2EAFFE02081F999FECF1FBAF6
:1042C00092BD81BD20BD0FB6F894FA9AF99A0FBE3F
:1042D00001968C3C910511F03196EECFE4EAFFE0B7
:1042E0002081F999FECF1FBA92BD81BD20BD0FB6C6
:1042F000F894FA9AF99A0FBE01968E3C910511F046
:104300003196EECFE6EAFFE02081F999FECF1FBAA1
:1043100092BD81BD20BD0FB6F894FA9AF99A0FBEEE
:104320000196803D910511F03196EECFE8EAFFE06D
:104330002081F999FECF1FBA92BD81BD20BD0FB675
:10434000F894FA9AF99A0FBE0196823D910511F000
:104350003196EECFEBE6F3E02081F999FECF1FBA5C
:1043600092BD81BD20BD0FB6F894FA9AF99A0FBE9E
:104370000196863D910511F03196EECFEFE6F3E020
:104380002081F999FECF1FBA92BD81BD20BD0FB625
:10439000F894FA9AF99A0FBE01968A3D910511F0A8
:1043A0003196EECFE3E7F3E02081F999FECF1FBA13
:1043B00092BD81BD20BD0FB6F894FA9AF99A0FBE4E
:1043C0008D3D910519F001963196EECF80911A023C
:1043D00090911B02A0911C02B0911D028F839887BF
:1043E000A987BA87FE01379684E690E02081F99983
:1043F000FECF1FBA92BD81BD20BD0FB6F894FA9AC8
:10440000F99A0FBE8736910519F001963196EECFD5
:10441000E4EBF2E0949108C08091C00085FFFCCFEE
:104420009093C600319694919923B1F7EEEBF4E0A6
:10443000949108C08091C00085FFFCCF9093C60086
:10444000319694919923B1F78091C00085FFFCCFFC
:104450008AE08093C6002A960FB6F894DEBF0FBE9E
:10446000CDBFCF91DF910895EF92FF920F931F93ED
:10447000DF93CF93CDB7DEB7E0970FB6F894DEBFEA
:104480000FBECDBFDE011196E6ECF3E080E10190B6
:104490000D928150E1F7DE015196E6EBF3E080E109
:1044A00001900D928150E1F7DE019196E6EAF3E08A
:1044B00080E101900D928150E1F789819A81AB8171
:1044C000BC818093D2099093D309A093D409B0936F
:1044D000D50989899A89AB89BC898093C20990934F
:1044E000C309A093C409B093C50989A19AA1ABA13E
:1044F000BCA18093E2099093E309A093E409B093EF
:10450000E5098D819E81AF81B8858093D60990930E
:10451000D709A093D809B093D9098D899E89AF890D
:10452000B88D8093C6099093C709A093C809B0932A
:10453000C9098DA19EA1AFA1B8A58093E60990936A
:10454000E709A093E809B093E90989859A85AB85C5
:10455000BC858093DA099093DB09A093DC09B093C2
:10456000DD09898D9A8DAB8DBC8D8093CA0990939E
:10457000CB09A093CC09B093CD0989A59AA5ABA589
:10458000BCA58093EA099093EB09A093EC09B09342
:10459000ED098D859E85AF85B8898093DE0990935E
:1045A000DF09A093E009B093E1098D8D9E8DAF8D59
:1045B000B8A18093CE099093CF09A093D009B0936E
:1045C000D1098DA59EA5AFA5B8A98093EE099093BA
:1045D000EF09A093F009B093F1090E94C25380E063
:1045E00090E0A6E1B4E48093F6099093F709A093D4
:1045F000F809B093F90980E090E0AAE7B4E4809369
:10460000FA099093FB09A093FC09B093FD0920E0FF
:1046100030E040E050E02093F2093093F3094093FA
:10462000F4095093F50980E29EE4A0E0B0E08093A5
:10463000BE099093BF09A093C009B093C10920930C
:104640000A0A30930B0A40930C0A50930D0A0F2E5E
:10465000F0E0EF2EF0E0FF2EF0EA0F2FF0E41F2F36
:10466000F02DE092FE09F092FF090093000A1093EA
:10467000010A8DEC9CECACECBEE38093020A9093B3
:10468000030AA093040AB093050AE092060AF09286
:10469000070A0093080A1093090A209354063093DE
:1046A0005506409356065093570620935006309374
:1046B0005106409352065093530620934C06309374
:1046C0004D0640934E0650934F0688EC90E0909331
:1046D0009F0F80939E0F86E490E09093A10F8093AC
:1046E000A00F2FEF30E03093A30F2093A20F86EEA0
:1046F00090E09093A50F8093A40F84E690E09093B0
:10470000A70F8093A60F3093A90F2093A80F80E0E6
:1047100090E0A0E2B1E480936B0390936C03A093CC
:104720006D03B0936E0363EC75EF88E89FE30E941E
:10473000168060936F03709370038093710390935E
:10474000720360E070E082E893E40E94228060934C
:1047500073037093740380937503909376030E94A0
:10476000107F80E090E0A0E8BFE380937703909310
:104770007803A0937903B0937A03E4EBF2E0949189
:1047800008C08091C00085FFFCCF9093C600319691
:1047900094919923B1F7EAEBF2E0949108C08091EB
:1047A000C00085FFFCCF9093C60031969491992369
:1047B000B1F78091C00085FFFCCF8AE08093C600EE
:1047C000E0960FB6F894DEBF0FBECDBFCF91DF915C
:1047D0001F910F91FF90EF900895CF93DF93C4EB5B
:1047E000D2E0FE01949108C08091C00085FFFCCF0B
:1047F0009093C600319694919923B1F7EEEAF4E0D4
:10480000949108C08091C00085FFFCCF9093C600B2
:10481000319694919923B1F78091C00085FFFCCF28
:104820008AE08093C600FE019491E4EBF2E008C0B8
:104830008091C00085FFFCCF9093C6003196949183
:104840009923B1F74091D2095091D3096091D409CD
:104850007091D50986EA94E00E948E334091D60982
:104860005091D7096091D8097091D90983EA94E0F1
:104870000E948E334091DA095091DB096091DC0986
:104880007091DD0980EA94E00E948E334091DE0948
:104890005091DF096091E0097091E1098DE994E0A0
:1048A0000E948E33EEE1F2E007C08091C00085FFE8
:1048B000FCCF31969093C60090819923B1F78091F7
:1048C000C00085FFFCCF8AE08093C600FE01949172
:1048D000E4EBF2E008C08091C00085FFFCCF90932C
:1048E000C600319694919923B1F7E3E8F4E09491EE
:1048F00008C08091C00085FFFCCF9093C600319620
:1049000094919923B1F78091C00085FFFCCF8AE094
:104910008093C600FE019491E4EBF2E008C0809120
:10492000C00085FFFCCF9093C600319694919923E7
:10493000B1F74091C2095091C3096091C4097091C7
:10494000C5098AE794E00E948E334091C6095091D0
:10495000C7096091C8097091C90987E794E00E946E
:104960008E334091CA095091CB096091CC09709166
:10497000CD0984E794E00E948E334091CE09509196
:10498000CF096091D0097091D10981E794E00E942C
:104990008E33EEE1F2E007C08091C00085FFFCCFCE
:1049A00031969093C60090819923B1F78091C00011
:1049B00085FFFCCF8AE08093C600FE019491E4EB72
:1049C000F2E008C08091C00085FFFCCF9093C60044
:1049D000319694919923B1F7E3E5F4E0949108C0FE
:1049E0008091C00085FFFCCF9093C60031969491D2
:1049F0009923B1F78091C00085FFFCCF8AE08093B6
:104A0000C600FE019491E4EBF2E008C08091C00082
:104A100085FFFCCF9093C600319694919923B1F70E
:104A20004091E2095091E3096091E4097091E50930
:104A30008AE494E00E94A0334091E6095091E7098E
:104A40006091E8097091E90987E494E00E94A0333D
:104A50004091EA095091EB096091EC097091ED09E0
:104A600084E494E00E94A0334091EE095091EF0954
:104A70006091F0097091F10981E494E00E94A03303
:104A8000EEE1F2E007C08091C00085FFFCCF3196D7
:104A90009093C60090819923B1F78091C00085FF63
:104AA000FCCF8AE08093C600FE019491E4EBF2E033
:104AB00008C08091C00085FFFCCF9093C60031965E
:104AC00094919923B1F7ECE0F4E0949108C08091BF
:104AD000C00085FFFCCF9093C60031969491992336
:104AE000B1F78091C00085FFFCCF8AE08093C600BB
:104AF000FE019491E4EBF2E008C08091C00085FFD4
:104B0000FCCF9093C600319694919923B1F74091D0
:104B1000F6095091F7096091F8097091F90983E05D
:104B200094E00E948E334091FA095091FB09609104
:104B3000FC097091FD0980E094E00E948E33EEE163
:104B4000F2E007C08091C00085FFFCCF31969093C2
:104B5000C60090819923B1F78091C00085FFFCCFFA
:104B60008AE08093C600FE019491E4EBF2E008C075
:104B70008091C00085FFFCCF9093C6003196949140
:104B80009923B1F7EDE4F3E0949108C08091C0005F
:104B900085FFFCCF9093C600319694919923B1F78D
:104BA0008091C00085FFFCCF8AE08093C600FE01A3
:104BB0009491E4EBF2E008C08091C00085FFFCCF47
:104BC0009093C600319694919923B1F74091F209E0
:104BD0005091F3096091F4097091F50984E493E030
:104BE0000E948E3340910A0A50910B0A60910C0A80
:104BF00070910D0A81E493E00E948E334091BE09CA
:104C00005091BF096091C0097091C1098EE393E092
:104C10000E94A0334091FE095091FF096091000A63
:104C20007091010A8BE393E00E948E334091020A57
:104C30005091030A6091040A7091050A88E393E099
:104C40000E948E334091060A5091070A6091080A2B
:104C50007091090A85E393E00E948E33EEE1F2E061
:104C600007C08091C00085FFFCCF31969093C600AD
:104C700090819923B1F78091C00085FFFCCF8AE035
:104C80008093C600FE019491E4EBF2E008C08091AD
:104C9000C00085FFFCCF9093C60031969491992374
:104CA000B1F7E3E2F3E0949108C08091C00085FF82
:104CB000FCCF9093C600319694919923B1F78091DF
:104CC000C00085FFFCCF8AE08093C600FE0194916E
:104CD000E4EBF2E008C08091C00085FFFCCF909328
:104CE000C600319694919923B1F740914C065091AA
:104CF0004D0660914E0670914F068AE193E00E9446
:104D00008E33409150065091510660915206709139
:104D1000530687E193E00E948E33409154065091F0
:104D20005506609156067091570684E193E00E9403
:104D30008E33EEE1F2E007C08091C00085FFFCCF2A
:104D400031969093C60090819923B1F78091C0006D
:104D500085FFFCCF8AE08093C600FE019491E4EBCE
:104D6000F2E008C08091C00085FFFCCF9093C600A0
:104D7000319694919923B1F7E6E0F3E0949108C05D
:104D80008091C00085FFFCCF9093C600319694912E
:104D90009923B1F78091C00085FFFCCF8AE0809312
:104DA000C600FE019491E4EBF2E008C08091C000DF
:104DB00085FFFCCF9093C600319694919923B1F76B
:104DC00040916B0350916C0360916D0370916E0381
:104DD0008CEF92E00E948E3360916F0370917003AC
:104DE00080917103909172030E941C80AB01BC0101
:104DF00089EF92E00E948E33609173037091740387
:104E000080917503909176030E942880AB01BC01CC
:104E100086EF92E00E948E33EEE1F2E007C08091CF
:104E2000C00085FFFCCF31969093C60090819923F6
:104E3000B1F78091C00085FFFCCF8AE08093C60067
:104E4000DF91CF9108950F931F93DF93CF93CDB749
:104E5000DEB72A970FB6F894DEBF0FBECDBF8091A4
:104E60001A0290911B02A0911C02B0911D028F8327
:104E70009887A987BA87FE01339604E610E0F9996E
:104E8000FECF12BD01BDF89A80B580830F5F1F4F22
:104E90000836110511F03196F2CFFE013196F999DD
:104EA000FECF12BD01BDF89A80B580830F5F1F4F02
:104EB0000A36110599F7CE010796BE016D5F7F4F47
:104EC00043E050E00E941E12009709F099C16981E9
:104ED0007A814EEC54E020E030E005C0992787FD50
:104EE0009095280F391FFA014F5F5F4F84918823F7
:104EF000A9F76217730709F083C1E2EDF9E0F999A8
:104F0000FECF12BD01BDF89A80B580830F5F1F4FA1
:104F10000A37110511F03196F2CFE2ECF9E0F99978
:104F2000FECF12BD01BDF89A80B580830F5F1F4F81
:104F30000A38110511F03196F2CFE2EEF9E0F99955
:104F4000FECF12BD01BDF89A80B580830F5F1F4F61
:104F50000A39110511F03196F2CF0E94C253E6EFE3
:104F6000F9E0F999FECF12BD01BDF89A80B58083B2
:104F70000F5F1F4F0E39110511F03196F2CFEAEF96
:104F8000F9E0F999FECF12BD01BDF89A80B5808392
:104F90000F5F1F4F023A110511F03196F2CFE2EF89
:104FA000F9E0F999FECF12BD01BDF89A80B5808372
:104FB0000F5F1F4F063A110511F03196F2CFEAE06C
:104FC000FAE0F999FECF12BD01BDF89A80B5808351
:104FD0000F5F1F4F0A3A110511F03196F2CFEEEB39
:104FE000F9E0F999FECF12BD01BDF89A80B5808332
:104FF0000F5F1F4F0E3A110511F03196F2CFEEEF11
:10500000F9E0F999FECF12BD01BDF89A80B5808311
:105010000F5F1F4F023B110511F03196F2CFE2E016
:10502000FAE0F999FECF12BD01BDF89A80B58083F0
:105030000F5F1F4F063B110511F03196F2CFE6E0EE
:10504000FAE0F999FECF12BD01BDF89A80B58083D0
:105050000F5F1F4F0A3B110511F03196F2CFECE4C0
:10506000F6E0F999FECF12BD01BDF89A80B58083B4
:105070000F5F1F4F063C110511F03196F2CFEEE99C
:10508000FFE0F999FECF12BD01BDF89A80B580838B
:105090000F5F1F4F083C110511F03196F2CFE0EA87
:1050A000FFE0F999FECF12BD01BDF89A80B580836B
:1050B0000F5F1F4F0A3C110511F03196F2CFE2EA63
:1050C000FFE0F999FECF12BD01BDF89A80B580834B
:1050D0000F5F1F4F0C3C110511F03196F2CFE4EA3F
:1050E000FFE0F999FECF12BD01BDF89A80B580832B
:1050F0000F5F1F4F0E3C110511F03196F2CFE6EA1B
:10510000FFE0F999FECF12BD01BDF89A80B580830A
:105110000F5F1F4F003D110511F03196F2CFE8EA05
:10512000FFE0F999FECF12BD01BDF89A80B58083EA
:105130000F5F1F4F023D110511F03196F2CFEBE6E4
:10514000F3E0F999FECF12BD01BDF89A80B58083D6
:105150000F5F1F4F063D110511F03196F2CFEFE6BC
:10516000F3E0F999FECF12BD01BDF89A80B58083B6
:105170000F5F1F4F0A3D110511F03196F2CFE3E7A3
:10518000F3E0F999FECF12BD01BDF89A80B5808396
:105190000D3D110521F00F5F1F4F3196F2CF0E9498
:1051A000107FE4EBF2E0949108C08091C00085FF8D
:1051B000FCCF9093C600319694919923B1F7ECED12
:1051C000F2E0949108C08091C00085FFFCCF9093DD
:1051D000C600319694919923B1F78091C00085FF64
:1051E000FCCF8AE08093C600F8DA2A960FB6F894CE
:1051F000DEBF0FBECDBFCF91DF911F910F910895FC
:1052000033D9F2CF0F931F93CF93DF93EC01062F87
:10521000617089890E9415D70695602F61708A890F
:105220000E9415D70695602F61708B890E9415D753
:1052300010E0159507950170639689816397602F3B
:105240000E9415D7088599859F3F19F08A8581119D
:10525000092F802F61E00E9415D7802F60E00E9407
:1052600015D7DF91CF911F910F910895EF92FF9283
:105270000F931F93CF93DF93EC01062FE42EF88456
:1052800099859F3F19F08A858111F92E8F818F3F73
:1052900029F480E491E00E9418D542C0898960E039
:1052A0000E9462D68A8960E00E9462D68B8960E0A3
:1052B0000E9462D68C8960E00E9462D68F8161E094
:1052C0000E9415D78E8160E00E9415D78F2D61E076
:1052D0000E9415D78C890E9447D7182F8F2D60E028
:1052E0000E9415D78F2D61E00E9415D78F2D60E0A9
:1052F0000E9415D7113051F3898961E00E9462D66E
:105300008A8961E00E9462D68B8961E00E9462D640
:105310008C8961E00E9462D68F8160E00E9415D77F
:105320008E816E2D0E9415D7602F607189890E9431
:1053300015D7602F60728A890E9415D7602F60741C
:105340008B890E9415D7602F60788C890E9415D7B1
:105350008F2D61E00E9415D78F2D60E00E9415D738
:10536000602F617089890E9415D7602F62708A89C9
:105370000E9415D7602F64708B890E9415D7087022
:105380008C89602F0E9415D78F2D61E00E9415D760
:105390008F2D60E00E9415D7DF91CF911F910F9163
:1053A000FF90EF9008950F931F93CF93DF93EC013D
:1053B000062F89858F3F21F4CE0140E057DF0CC0D6
:1053C0001A851A86CE0140E051DF82E08A87CE013D
:1053D000602F40E04BDF1A87DF91CF911F910F9133
:1053E0000895FC01638D862F8460838F6C60CF01EC
:1053F000DACFFC01638D6D7F638F686040E036CF4C
:10540000FF920F931F93CF93DF93EC01042F8E89AC
:10541000841710F4082F01500D876C871E86202FEB
:1054200030E0FE01E20FF31FF7881B85160F8F2D6A
:105430008F73180F18320CF0185217FD185D8A85FB
:1054400090E0227030708217930711F0CE01D1DF07
:1054500002700A8780E4F8221F291068CE01612FAC
:1054600040E004DFDF91CF911F910F91FF900895ED
:105470001F93CF93DF93EC01162F8B85882319F4AC
:105480008E85882321F0CE016C854D85B9DF1D30D6
:1054900031F01A3021F0CE01612F41E0E7DE1E86A7
:1054A0008F852C85882371F42F5F2C871D3041F068
:1054B000332727FD30958D8990E02817390784F030
:1054C0001C8609C021502C871A3011F027FF08C014
:1054D0008D8981508C878D858F5F8D8781E08E8748
:1054E0002D85332727FD30958E8990E028173907C1
:1054F0000CF01D8681E090E0DF91CF911F9108951F
:10550000CF93DF93EC0189858F3FB9F082E08A87E2
:10551000CE0161E040E0AADE1A86CE0161E040E003
:10552000A5DE8F818F3F21F484E59BE00E9418D592
:10553000CE0160E040E064DF0BC0CE0161E040E0FE
:1055400095DE8F818F3F21F484E59BE00E9418D582
:105550001B86DF91CF910895FF920F931F93CF93F6
:10556000DF93EC01F02E423010F008E001C000E0C3
:10557000222319F0413009F4046010E08CE49DE12D
:105580000E9418D51F5F1231C9F78E8160E00E941A
:1055900015D78F2D60E00E9415D78E8160E00E94A4
:1055A00015D7CE0163E02EDE88E893E10E9418D57E
:1055B000CE0163E027DE86E990E00E9418D5CE0197
:1055C00063E020DE86E990E00E9418D5CE0162E01B
:1055D00019DE86E990E00E9418D50062CE01602FA6
:1055E00040E044DE84E08B8FCE01FBDECE0188DF1D
:1055F00082E08C8FCE0166E040E038DEDF91CF9113
:105600001F910F91FF900895EF92FF920F931F93B8
:10561000CF93DF93EC01162FF42EE22E6D8B6D836A
:105620004E8B4C838F89860F898F888D860F8A8F4A
:10563000CE01088591DF09850F3F51F0198E80E476
:105640008A8F82E08A87CE01612F4F2D2E2D84DF35
:10565000DF91CF911F910F91FF90EF9008956F927E
:105660007F928F92AF92CF92EF920F931F93DF931F
:10567000CF93CDB7DEB73C01142F8E2DF301668397
:105680009FEF9783208701871286138614861586DD
:1056900016861786E18AC28AA38A848A61E00E94FC
:1056A00062D68C2D61E00E9462D68A2D61E00E9454
:1056B00062D6882D61E00E9462D6F301178A80E4E9
:1056C000808F84E1818F84E5828F868161E00E94F2
:1056D00062D61F3F41F0812F61E00E9462D6812F88
:1056E00060E00E9415D7F301808561E00E9462D6D8
:1056F0000F3F21F0802F61E00E9462D6C30164E178
:1057000041E020E081DFF3011783CF91DF911F910A
:105710000F91EF90CF90AF908F907F906F90089502
:10572000CF92DF92EF92FF920F931F93CF93DF936D
:105730008C017A016770FC01818570E08F3FB9F4BC
:1057400033E0660F771F3A95E1F76064C80140E0E7
:105750008DDDC0E0D0E0F701EC0FFD1FC8016081D6
:1057600041E084DD2196C830D105A9F732C0F801A7
:10577000C284128623E0660F771F2A95E1F790E432
:10578000D92ED62AC8016D2D40E070DDC0E0D0E0F2
:10579000F701EC0FFD1FC801608141E067DD219634
:1057A000C830D105A9F782E0F8018287C8016D2DC4
:1057B00040E05CDDC0E0D0E0F701EC0FFD1FC80168
:1057C000608141E053DD2196C830D105A9F7F80189
:1057D000C286DF91CF911F910F91FF90EF90DF90E4
:1057E000CF9008951F920F920FB60F920BB60F92A3
:1057F00011242F933F934F938F939F93EF93FF9396
:105800004091C600E0912205F091230531969F0159
:105810002F773070319780912405909125052817B6
:10582000390739F0EE55FB4F408330932305209321
:105830002205FF91EF919F918F914F913F912F9171
:105840000F900BBE0F900FBE0F901F9018959A01EE
:10585000AB01203081EE380780E0480780E0580730
:1058600049F182E08093C00060E079E08DE390E050
:105870000E9447DD2150304040405040CA01B901EC
:1058800022E030E040E050E00E9447DD3093C50068
:105890002093C4008091C10080618093C1008091F9
:1058A000C10088608093C1008091C10080688093AE
:1058B000C10008951092C00020E130E0E7CF2091B0
:1058C00024053091250580912205909123058217AA
:1058D000930719F42FEF3FEF0EC0F901EE55FB4F80
:1058E00080812F5F3F4F2F773070309325052093B5
:1058F0002405282F30E0C901089580912405909156
:1059000025059093230580932205089508952F92ED
:105910003F924F925F926F927F928F929F92AF923F
:10592000BF92CF92DF92EF92FF920F931F93DF937C
:10593000CF93CDB7DEB7A0970FB6F894DEBF0FBEFA
:10594000CDBF1C016A017B0141155105610571053F
:1059500041F440E350E060E070E020E030E08BD0C4
:1059600055C0882499245401422E55246624772456
:1059700001E010E00C0F1D1F080D191DC701B60135
:10598000A30192010E9425DDF80160830894811C27
:10599000911CA11CB11CC701B601A30192010E9478
:1059A00025DDC901DA016C017D01C114D104E104D6
:1059B000F104F1F681E0E82EF12CEC0EFD1EE80C6E
:1059C000F91C3E010894611C711CD501C4010197AA
:1059D000A109B1096C01C818D90815C0F601EE0D6E
:1059E000FF1D40814A3010F4405D01C0495C5527DD
:1059F00047FD5095652F752FC10120E030E03BD069
:105A00000894E108F1086E147F0441F7A0960FB6E0
:105A1000F894DEBF0FBECDBFCF91DF911F910F91E4
:105A2000FF90EF90DF90CF90BF90AF909F908F90BE
:105A30007F906F905F904F903F902F900895211529
:105A4000310539F48091C00085FFFCCF4093C6003A
:105A500008955DCFEF92FF920F931F939A01E62E68
:105A6000FF2400E010E0B801A701E9DF1F910F91CA
:105A7000FF90EF900895EF92FF920F931F93CF93B3
:105A8000DF93EC017A018B012115310539F4809106
:105A9000C00085FFFCCFE092C60019C02A30310556
:105AA000A9F477FF0FC04DE250E060E070E020E025
:105AB00030E0E1DF10950095F094E094E11CF11CDA
:105AC000011D111DCE01B801A7012AE020DFDF91E1
:105AD000CF911F910F91FF90EF900895EF92FF9259
