:100000000C94480E0C94750E0C94750E0C94750E91
:100010000C94750E0C94750E0C94750E0C94750E54
:100020000C94750E0C94750E0C94750E0C94750E44
:100030000C94750E0C94750E0C94750E0C94750E34
:100040000C94750E0C9487730C94750E0C94750EAD
:100050000C94750E0C94750E0C94117D0C943DCB84
:100060000C94750E0C9423280C94750E0C94750E3C
:100070000C94750E0C94750E0C94750E0C94750EF4
:100080000C94750E0C94750E0C94750E0C94750EE4
:100090000C94750E0C94750E0C94750E0C94EFC6A2
:1000A0000C94750E0C94750E0C94750E0C94750EC4
:1000B0000C94750E0C94750E0C94750E0C94750EB4
:1000C0000C94750E0C94750E0C94750E0C94750EA4
:1000D0000C94750E0C94750E0C94750E0C94750E94
:1000E0000C94750E084AD73B3BCE016E84BCBFFD15
:1000F000C12F3D6C74319ABD56833DDA3D00C77FF8
:1001000011BED9E4BB4C3E916BAAAABE0000008090
:100110003F05A84CCDB2D44EB93836A9020C50B91F
:10012000918688083CA6AAAA2ABE000000803F4DFE
:10013000383420582059205A2045006563686F3AAA
:100140000043616E6E6F7420656E74657220737506
:10015000626469723A20004D3234004D32332025FA
:1001600073006175746F25692E67004572726F7236
:100170003A006572726F722077726974696E6720D7
:10018000746F2066696C65004E6F74205553422071
:100190004472697665207072696E74696E67002FAB
:1001A00000555342206472697665207072696E74DE
:1001B000696E67206279746520002E0044656C6565
:1001C00074696F6E206661696C65642C2046696C89
:1001D000653A200046696C652064656C65746564E9
:1001E0003A002E006F70656E206661696C65642C44
:1001F0002046696C653A200057726974696E672001
:10020000746F2066696C653A20002E006F70656E11
:10021000206661696C65642C2046696C653A200033
:100220002E006F70656E206661696C65642C2046D7
:10023000696C653A200046696C652073656C65637E
:10024000746564002053697A653A200046696C65DC
:10025000206F70656E65643A20002E006F70656EC9
:10026000206661696C65642C2046696C653A2000E3
:10027000555342204472697665206F6B006F70653C
:100280006E526F6F74206661696C656400766F6C86
:10029000756D652E696E6974206661696C656400B0
:1002A00055534220447269766520696E69742066F0
:1002B00061696C006563686F3A0048617264636FDE
:1002C0006465642044656661756C7420536574745C
:1002D000696E6773204C6F616465640053746F725C
:1002E00065642073657474696E67732072657472D7
:1002F0006965766564002044002049002020204D77
:100300003330312050005049442073657474696E55
:1003100067733A00205A0020590020204D323036B1
:10032000205800486F6D65206F66667365742028DD
:100330006D6D293A00204500205A002058002042C7
:100340000020540020204D32303520530041647687
:10035000616E636564207661726961626C65733A8F
:1003600020533D4D696E2066656564726174652039
:10037000286D6D2F73292C20543D4D696E207472A9
:100380006176656C20666565647261746520286DB0
:100390006D2F73292C20423D6D696E696D756D203E
:1003A0007365676D656E742074696D6520286D7363
:1003B000292C20583D6D6178696D756D2058592044
:1003C0006A65726B20286D6D2F73292C20205A3D91
:1003D0006D6178696D756D205A206A65726B202891
:1003E0006D6D2F73292C2020453D6D6178696D75E9
:1003F0006D2045206A65726B20286D6D2F73290072
:1004000020540020204D3230342053004163636576
:100410006C65726174696F6E3A20533D6163636508
:100420006C65726174696F6E2C20543D72657472D4
:1004300061637420616363656C65726174696F6E7A
:1004400000204500205A0020590020204D32303134
:100450002058004D6178696D756D20416363656C4E
:1004600065726174696F6E20286D6D2F7332293A41
:1004700000204500205A0020590020204D32303302
:100480002058004D6178696D756D206665656472F0
:100490006174657320286D6D2F73293A0020450023
:1004A000205A0020590020204D3932205800537422
:1004B0006570732070657220756E69743A005365BB
:1004C0007474696E67732053746F7265640065633A
:1004D000686F3A004572726F723A0053544F505031
:1004E00045442E20005072696E7465722073746FDB
:1004F000707065642064756520746F206572726F1A
:1005000072732E2046697820746865206572726F58
:100510007220616E6420757365204D3939392074FD
:100520006F20726573746172742E202854656D702B
:100530006572617475726520697320726573657484
:100540002E20536574206974206166746572207270
:10055000657374617274696E6729004B494C4C4530
:10056000442E20005072696E7465722068616C744C
:1005700065642E206B696C6C28292063616C6C6546
:100580006421006F6B00526573656E643A2000222F
:1005900000556E6B6E6F776E20636F6D6D616E646C
:1005A0003A2022004368616E67652066696C616D60
:1005B000656E74007A5F6D61783A20007A5F6D69CC
:1005C0006E3A2000795F6D61783A2000795F6D693D
:1005D0006E3A2000785F6D61783A2000785F6D692F
:1005E0006E3A20005A3A00593A0020436F756E74F3
:1005F00020583A2000453A005A3A00593A00583AF1
:10060000004649524D574152455F4E414D453A4D86
:1006100061726C696E2056313B20537072696E7442
:1006200065722F6772626C206D61736875702066E9
:100630006F722067656E36204649524D57415245CC
:100640005F55524C3A687474703A2F2F496E766534
:100650006E7441506172742E636F6D2050524F540E
:100660004F434F4C5F56455253494F4E3A312E300F
:10067000204D414348494E455F545950453A5269CF
:10068000676964426F742045585452554445525F1F
:10069000434F554E543A310A0042656420646F6EF0
:1006A000652E0020423A0020453A00543A00426547
:1006B000642048656174696E672E004865617469DD
:1006C0006E6720646F6E652E0020573A0020453A11
:1006D00000543A0048656174696E672E2E2E002022
:1006E00042403A0020403A00202F0020423A0020A9
:1006F0002F006F6B20543A002569206D696E2C2005
:1007000025692073656300456E642066696C652009
:100710006C69737400426567696E2066696C652058
:100720006C697374004E6F206D6F76652E00526594
:1007300073756D696E67207072696E7400576169B8
:100740007420666F7220757365722E2E2E00536CA6
:100750006565702E2E2E000000454300007E43008C
:10076000007E430000A0400000A0400000803FFF4A
:10077000FFFF00000000000000000000000000007B
:1007800000000000000000000000000045430000E1
:100790007E4300007E43256920686F7572732025B3
:1007A00069206D696E7574657300446F6E652070A5
:1007B00072696E74696E672066696C650053544F88
:1007C000505045442E20005072696E74657220733B
:1007D000746F707065642064756520746F20657235
:1007E000726F72732E204669782074686520657276
:1007F000726F7220616E6420757365204D393939CE
:1008000020746F20726573746172742E2028546591
:100810006D7065726174757265206973207265739D
:1008200065742E2053657420697420616674657246
:100830002072657374617274696E6729006F6B0052
:100840004E6F204C696E65204E756D626572207723
:1008500069746820636865636B73756D2C204C61E7
:100860007374204C696E653A20004E6F20436865B2
:10087000636B73756D2077697468206C696E652091
:100880006E756D6265722C204C617374204C696EBC
:10089000653A2000636865636B73756D206D6973DD
:1008A0006D617463682C204C617374204C696E65B3
:1008B0003A20004C696E65204E756D626572206944
:1008C00073206E6F74204C617374204C696E6520C8
:1008D0004E756D6265722B312C204C617374204C07
:1008E000696E653A20004D31313000446F6E6520ED
:1008F000736176696E672066696C652E006F6B00A8
:100900004D3239002020506C616E6E657242756602
:1009100066657242797465733A2000204672656597
:10092000204D656D6F72793A20004A756E20203235
:10093000203230313400436F6D70696C65643A2049
:1009400000286E6F6E652C2064656661756C74207E
:10095000636F6E6669672900207C20417574686F3B
:10096000723A20004A756E20203220323031342015
:1009700030303A30393A353600204C6173742055A6
:100980007064617465643A2000312E302E30004D61
:1009900061726C696E200020536F667477617265B6
:1009A00020526573657400205761746368646F67D3
:1009B000205265736574002042726F776E206F75E8
:1009C00074205265736574002045787465726E6199
:1009D0006C20526573657400506F776572557000B6
:1009E0007374617274002200656E717565696E675B
:1009F0002022002200656E717565696E67202200F5
:100A00006563686F3A0020746F6F206C6F6E6720AB
:100A1000657874727573696F6E2070726576656E35
:100A20007465640020636F6C6420657874727573FC
:100A3000696F6E2070726576656E746564007C3CCB
:100A40003E5E2B3D3F2F5B5D3B2C2A225C004531F7
:100A50003A200045303A20005A3A2000593A200006
:100A6000583A20004D53312C4D53322050696E734B
:100A70000A0024F404D9201BC40C5C0E9804C40999
:100A80005F0265077101F405F900FB04B300480437
:100A90008700C10369005803550003034500BE02E7
:100AA0003A008402310053022A0029022500040280
:100AB0002000E4011C00C8011900AF0117009801D3
:100AC0001400840113007101100061011000510134
:100AD0000E0043010D0036010B002B010B0020011D
:100AE0000B00150109000C01090003010800FB00BF
:100AF0000800F3000800EB000700E4000600DE0039
:100B00000600D8000600D2000600CC000500C70091
:100B10000500C2000500BD000400B9000400B500D6
:100B20000400B1000400AD000400A9000400A50009
:100B30000300A20003009F0004009B000300980034
:100B400003009500020093000300900003008D0055
:100B500002008B000300880002008600020084006F
:100B60000300810002007F0002007D0002007B0084
:100B70000200790002007700010076000200740094
:100B8000020072000100710002006F0002006D009F
:100B900001006C0002006A000100690002006700A9
:100BA00001006600010065000100640002006200AF
:100BB000010061000100600001005F0002005D00B3
:100BC00001005C0001005B0001005A0001005900B7
:100BD00001005800010057000100560001005500B7
:100BE00001005400010053000000530001005200B6
:100BF000010051000100500001004F0001004E00B3
:100C000000004E0001004D0001004C0001004B00AF
:100C100000004B0001004A000100490001004800AB
:100C200000004800010047000100460000004600A7
:100C300001004500000045000100440001004300A0
:100C4000000043000100420000004200010041009A
:100C5000000041000100400001003F0000003F0093
:100C600001003E0000003E0001003D0000003D008C
:100C700001003C0000003C0000003C0001003B0083
:100C800000003B0001003A0000003A00010039007A
:100C90000000390001003800000038000000380072
:100CA0000100370000003700010036000000360068
:100CB000000036000100350000003500000035005E
:100CC0000100340000003400000034000100330053
:100CD0000000330000003300010032000000320049
:100CE000000032000100310000003100000031003E
:100CF00001003000000030000000300001002F0033
:100D000000002F0000002F0000002F0001002E0027
:100D100000002E0000002E0001002D0000002D001C
:100D200000002D0000002D0001002C0000002C0010
:100D300000002C0000002C0001002B0000002B0004
:100D400000002B0000002B0001002A0000002A00F8
:100D500000002A0000002A000100290000002900EC
:100D600000002900000029000000290001002800DF
:100D700000002800000028000000280000002800D3
:100D800001002700000027000000270000002700C6
:100D900000002700010026000000260000002600B9
:100DA00000002600000026000100250000002500AC
:100DB000000025000000250000002500000025009F
:100DC0000100240000002400000024000000240092
:100DD0000000240001002300000023000000230085
:100DE0000000230000002300000023000000230077
:100DF000010022000000220000002200000022006A
:100E0000000022000000220001002100000021005B
:100E1000000021000000210000002100000021004E
:100E20000000210001002000000020000000200040
:100E30000000200000002000000020000000200032
:100E40000000200001001F0000001F0000001F0024
:100E500000001F0000001F0000001F0000001F0016
:100E600001001E0000001E0000001E0000001E0009
:100E7000000024F4D43050C38E20C2A24017828BCD
:100E80007011127A910D816CD90AA861E108C758D6
:100E90006607615143061E4B5D05C145A7041A4113
:100EA0001104093D9803713931034036DB02653383
:100EB0009102D4305402802E1D02632CEE01752A5B
:100EC000C501B028A001102781018F2564012B24C2
:100ED0004B01E0223401AC211F018D200D01801F48
:100EE000FC00841EED00971DDF00B81CD200E61B3D
:100EF000C600201BBC00641AB200B219A8000A196F
:100F0000A0006A189900D117910040178B00B51600
:100F1000840031167E00B31579003A157300C714AA
:100F20006F0058146A00EE136600881363002513DF
:100F30005E00C7125B006C12570015125400C111FD
:100F4000510070114F0021114B00D61049008D1037
:100F500047004610440002104200C00F4000800FBE
:100F60003E00420F3C00060F3B00CB0E3800930EB4
:100F700037005C0E3500270E3400F30D3200C10D32
:100F80003100900D3000600D2E00320D2D00050D4A
:100F90002C00D90C2B00AE0C2900850C29005C0C10
:100FA0002700350C27000E0C2600E80B2400C40B8C
:100FB0002400A00B23007D0B23005A0B2100390BCA
:100FC0002100180B2000F80A1F00D90A1E00BB0AD6
:100FD0001E009D0A1D00800A1D00630A1C00470AAE
:100FE0001B002C0A1B00110A1A00F7091A00DD0960
:100FF0001900C4091900AB091900920917007B09EF
:101000001800630917004C0916003609160020095C
:1010100016000A091500F5081500E0081400CC08B0
:101020001400B8081400A4081400900813007D08E8
:1010300012006B081300580812004608120034080A
:101040001100230811001208110001081100F00717
:101050001000E0071000D0071000C0071000B00714
:101060000F00A107100091070E0083070F007407FF
:101070000F0065070E0057070E0049070E003B07DB
:101080000D002E070E0020070D0013070D000607A8
:101090000D00F9060C00ED060D00E0060C00D4066C
:1010A0000C00C8060C00BC060C00B0060C00A40620
:1010B0000B0099060C008D060B0082060B007706CC
:1010C0000B006C060B0061060A0057060B004C066D
:1010D0000A0042060A0038060A002E060A00240604
:1010E0000A001A060A001006090007060A00FD0594
:1010F0000900F4050900EB050900E2050900D9051E
:101100000900D0050900C7050900BE050900B5059D
:101110000800AD050800A50509009C050800940518
:1011200008008C050800840508007C05080074058B
:1011300008006C050700650508005D0507005605F9
:1011400008004E0507004705070040050800380560
:101150000700310507002A050700230507001C05C5
:101160000600160507000F05070008050600020522
:101170000700FB040600F5040700EE040600E8047F
:101180000600E2040700DB040600D5040600CF04D5
:101190000600C9040600C3040600BD040600B70427
:1011A0000600B1040500AC040600A6040600A00475
:1011B00005009B04060095040500900406008A04BF
:1011C000050085040500800406007A040500750406
:1011D0000500700405006B04050066040500610449
:1011E00005005C04050057040500520405004D0489
:1011F000050048040500430405003E0404003A04C9
:10120000050035040500300404002C040500270403
:101210000400230405001E0404001A04040016043C
:101220000500110404000D04040009040500040471
:10123000040000040400FC030400F8030400F403A9
:101240000400F0030400EC030400E8030400E403DA
:101250000400E0030400DC030400D8030400D4030A
:101260000400D0030400CC030400C8030300C5033A
:1012700003006563686F3A00656E6473746F707322
:10128000206869743A205A00205A3A00656E6473E7
:10129000746F7073206869743A20590020593A00BD
:1012A000656E6473746F7073206869743A205800B7
:1012B00020583A00656E6473746F707320686974A7
:1012C0003A20004572726F723A004572723A204DB0
:1012D000415854454D50204245440054656D706559
:1012E00072617475726520686561746564206265F9
:1012F00064207377697463686564206F66662E2066
:101300004D415854454D5020747269676765726548
:1013100064202121004572723A204D494E54454DBA
:1013200050003A204578747275646572207377694D
:101330007463686564206F66662E204D494E54457F
:101340004D5020747269676765726564202100459D
:1013500072723A204D415854454D50003A2045781C
:10136000747275646572207377697463686564204C
:101370006F66662E204D415854454D502074726959
:10138000676765726564202100202D20496E7661B3
:101390006C6964206578747275646572206E756D11
:1013A00062657220210070012C0190012701B001BB
:1013B0002201C0011D01F0011801100213013002C9
:1013C0000E016002090190020401C002FF00000347
:1013D000FA004003F5008003F000D003EB00200486
:1013E000E6007004E100E004DC004005D700C00521
:1013F000D2004006CD00D006C8008007C3003008E8
:10140000BE00F008B900C009B400B00AAF00B00BCC
:10141000AA00D00CA500000EA000500F9B00C01029
:1014200096005012910000148C00C0158700B01770
:101430008200B0197D00D01B7800001E7300402090
:101440006E0090226900F024640040275F0090291C
:101450005A00E02B5500102E500020304B00103267
:101460004600E033410090353C00103737007038BB
:101470003200A0392D00B03A2800A03B2300603C88
:101480001E00103D1900903D1400103E0F00703EEC
:101490000A00C03E0500003F00005049442041754D
:1014A000746F74756E652066696E69736865642013
:1014B0002120506C61636520746865204B702C207E
:1014C0004B6920616E64204B6420636F6E7374619E
:1014D0006E747320696E2074686520636F6E666930
:1014E0006775726174696F6E2E68005049442041BF
:1014F00075746F74756E65206661696C6564212012
:1015000074696D656F75740020403A006F6B2054EC
:101510003A006F6B20423A00504944204175746F85
:1015200074756E65206661696C6564212054656D13
:10153000706572617475726520746F206869676880
:1015400000204B643A2000204B693A2000204B7069
:101550003A200020436C61736963205049442000A5
:101560002054753A2000204B753A2000206D617898
:101570003A2000206D696E3A200020643A20002055
:10158000626961733A20002D2D3A2D2D002D2D2DED
:1015900000555342002059000120000120005574DD
:1015A000696C69746965730053657474696E6773F7
:1015B00000507265706172650054756E65004E6F03
:1015C00020555342204472697665005072696E74EA
:1015D0002066726F6D205553420053746F70205017
:1015E00072696E7400526573756D65205072696E14
:1015F00074005061757365205072696E74004D36C9
:101600003030004368616E67652066696C616D65A6
:101610006E7400426564204C6576656C696E670087
:1016200044697361626C6520537465707065727390
:1016300000476F204261636B004D6F7665204865FF
:10164000616400436F6E74696E756500436865631D
:101650006B20457874656E7473004C6576656C20FC
:1016600042656400526573756D6500526573756DF2
:1016700065004D3834004730205A3000473020583C
:10168000256420592564004730205A300047302017
:1016900058256420592564004730205A2564204687
:1016A000313030303000473238004730205A25641E
:1016B00020463130303030004730205825642059E2
:1016C0002564004730205A256420463130303030C0
:1016D00000526573746F72652044656661756C7441
:1016E00073004C6F61642053657474696E67730096
:1016F00053746F72652053657474696E6773004D1F
:101700006F74696F6E0054656D7065726174757287
:1017100065004573746570732F6D6D004573746556
:1017200070732F6D6D005A73746570732F6D6D003B
:101730005A73746570732F6D6D005973746570738F
:101740002F6D6D005973746570732F6D6D00587334
:10175000746570732F6D6D005873746570732F6DA1
:101760006D00412D7265747261637400412D726564
:10177000747261637400416D6178206500416D6130
:1017800078206500416D6178207A00416D61782094
:101790007A00416D6178207900416D61782079008F
:1017A000416D6178207800416D6178207800565451
:1017B000726176206D696E005654726176206D6993
:1017C0006E00566D696E00566D696E00566D6178DB
:1017D000206500566D6178206500566D6178207A2D
:1017E00000566D6178207A00566D61782079005638
:1017F0006D6178207900566D6178207800566D61B2
:101800007820780056652D6A65726B0056652D6AE2
:1018100065726B00567A2D6A65726B00567A2D6A76
:1018200065726B005678792D6A65726B005678790F
:101830002D6A65726B00416363656C00416363658B
:101840006C005049442D43005049442D43005049F9
:10185000442D44005049442D44005049442D490032
:101860005049442D49005049442D50005049442DC1
:10187000500020022046616374002002204661630C
:1018800074002002204D6178002002204D61780014
:101890002002204D696E002002204D696E004F66C7
:1018A00066004F6E20004F6666004F6E2000417547
:1018B000746F74656D700050726568656174204165
:1018C000425320436F6E66005072656865617420F4
:1018D000504C4120436F6E660053746F7265205305
:1018E000657474696E67730046616E207370656518
:1018F000640046616E2073706565640048656174BC
:1019000065642042656400486561746564204265D1
:1019100064004E6F7A7A6C6531004E6F7A7A6C652E
:10192000310053746F72652053657474696E677308
:101930000046616E2073706565640046616E2073B9
:101940007065656400486561746564204265640083
:1019500048656174656420426564004E6F7A7A6CF4
:101960006531004E6F7A7A6C6531004D3834004431
:10197000697361626C652053746570706572730081
:10198000473238004175746F20486F6D65004D6FA8
:101990007665204178697300486561742F436F6FE5
:1019A0006C004D6F766520302E316D6D004D6F7679
:1019B0006520316D6D004D6F76652031306D6D00A5
:1019C0004578747275646572004D6F7665205A00B3
:1019D0004D6F76652059004D6F766520580045782B
:1019E000747275646572005A005900580046616E41
:1019F0002073706565640046616E20737065656470
:101A000000486561746564204265640048656174DE
:101A1000656420426564004E6F7A7A6C6532004ED0
:101A20006F7A7A6C6532004E6F7A7A6C6531004E4F
:101A30006F7A7A6C653100436F6F6C646F776E00FC
:101A40005072656865617420414253005072656848
:101A500065617420504C41004D3630300043686160
:101A60006E67652066696C616D656E7400466C6FAB
:101A70007700466C6F770046616E20737065656411
:101A80000046616E20737065656400486561746529
:101A90006420426564004865617465642042656441
:101AA000004E6F7A7A6C6532004E6F7A7A6C6532CE
:101AB000004E6F7A7A6C6531004E6F7A7A6C6531C0
:101AC0000053706565640053706565640050726909
:101AD0006E742066726F6D20555342005072696EAD
:101AE000742066726F6D2055534200052E2E004DF6
:101AF0003234004D3233202573004D3834205820C5
:101B000059205A2045005553422044726976652079
:101B100052656D6F76656400555342204472697654
:101B20006520496E736572746564000000210024AD
:101B30000027002A002D00300033000101000004BE
:101B40000107010A0100002200250028002B002EB9
:101B5000003100340002010000050108010B010002
:101B60000020002300260029002C002F0032000056
:101B70000100000301060109010505050507050827
:101B8000080808020202020A0A0808040404040100
:101B90000101010101010103030303030303030422
:101BA0000707070C0C0C0C0C0C0C0C0202020206B2
:101BB000060606060606060B0B0B0B0B0B0B0B01A2
:101BC000021020200808102040102040800201024E
:101BD0000108040201010204081020408080402016
:101BE0001008040201800402018040201008040251
:101BF00001080402010102040810204080010204CF
:101C000008102040800000090A02080B0C0D07068E
:101C100003040100000000000000000000000000BC
:101C200000000000000000000000000000000000B4
:101C30000011100F00000000000000000000000074
:101C40000000000000000000000000494E46494E20
:101C50004954594E414ECDCCCC3D0AD7233C17B701
:101C6000D13877CC2B329595E6241FB14F0A00006E
:101C700020410000C84200401C4620BCBE4CCA1B8C
:101C80000E5AAEC59D74B728672B3DB05EC6622B59
:101C900011241FBECFEFD1E2DEBFCDBF00E00CBFED
:101CA00014E0A0E0B2E0E6E2F8EA01E00BBF02C017
:101CB00007900D92A03AB107D9F71BBE10E1A0EA38
:101CC000B4E001C01D92A13EB107E1F71CE1CEE8EE
:101CD000DCE104C02297FE010E94B9D3C638D107C7
:101CE000C9F70E944ACE0C9407D40C940000A0E0DF
:101CF000B0E0EDE7FEE00C94D6D3EC015B0161159A
:101D0000710519F0FB0191838083F9908F2D90E08C
:101D10000E94BDD3892BC9F7FDE2FF1621F4F9908B
:101D2000EE24E39405C02BE2F21609F4F990EE24B8
:101D30008E0101501040C8016BE47CE143E050E0AB
:101D400072D2892BF9F48E010E5F1F4FC8016EE429
:101D50007CE145E050E067D2892B19F48E01095FE0
:101D60001F4FA114B10419F0F50111830083E0FCA9
:101D700004C070E090E080E813C070E090E080E87C
:101D80006FEF07C1C80163E57CE143E050E04BD24F
:101D9000892B69F4A114B10429F470E090E080EC7F
:101DA0006FE7F7C02296F501D183C083F6CF882470
:101DB000992440E050E060E070E0EF2DE053EA301D
:101DC000A0F5F2E0EF2A8E2D90E09C012870307093
:101DD000E2FE06C0232B79F50894811C911C2BC0D0
:101DE000232B19F0089481089108DB01CA0112E045
:101DF000880F991FAA1FBB1F1A95D1F7480F591FAB
:101E00006A1F7B1F440F551F661F771F4E0F511D02
:101E1000611D711D483929E9520729E9620729E145
:101E2000720748F084E0E82A06C0EE3F31F4E3FC94
:101E300039C098E0E92AF990C0CFE53311F0E531D7
:101E400089F529912D3219F4E0E1EE2A05C02B32F3
:101E500019F081E090E003C0299182E090E0E22F48
:101E6000E053EA3018F0C81BD90B1CC020E030E06A
:101E7000FCE020383F075CF4C901880F991F880FE8
:101E8000991F280F391F220F331F2E0F311DE99183
:101E9000E053EA3068F3E4FE03C0309521953F4FEC
:101EA000820E931ECE2CDD24E1FE07C0A114B104E6
:101EB00021F02197F501D183C083CB01BA010E94A3
:101EC00022D07B018C01F3E0CF22DD2423E0C21677
:101ED000D10421F417FB109517F9109557016801EB
:101EE000C801B70120E030E040E050E00E9482CF1E
:101EF000882309F44AC097FE0DC02AE6E22E2CE1A1
:101F0000F22E9094819491089394C0E2D0E000E086
:101F100010E012C092E8E92E9CE1F92EF6CFF7010D
:101F20002591359145915491C601B5010E9462D227
:101F30005B016C018C1A9D0A8C169D0684F7D59561
:101F4000C7950F5F1F4F0630110529F08CEF9FEFEB
:101F5000E80EF91EF1CFC501D6017C018D018C2D53
:101F6000880F8D2D881F8F3F51F0C601B50120E0ED
:101F700030E040E050E00E9482CF882331F482E2DA
:101F800090E09093E0108093DF107E2D9F2D802FA6
:101F9000612F272F392F482F562FB901CA01CDB7EE
:101FA000DEB7ECE00C94F2D32F923F925F926F92E7
:101FB0007F928F929F92AF92BF92CF92DF92EF92D9
:101FC000FF920F931F93CF93DF938C011B01EA01C4
:101FD0006115710519F0FB0191838083209749F009
:101FE000CE010297839728F020E030E040E050E0F7
:101FF000F6C0F801A1908F018A2D90E00E94BDD318
:10200000892BB9F7FDE2AF1631F4F801A1908F01E9
:102010005524539407C0FBE2AF1619F4F801A190C0
:102020008F015524209719F0C031D105C1F4F0E398
:10203000AF1679F4F8018081883711F0883549F4BA
:10204000F801A1800E5F1F4FF2E05F2AC0E1D0E0EF
:1020500006C0209721F480E3A816E9F427C0C83011
:10206000D10531F1C930D10524F4C230D10531F5A3
:102070000CC0CA30D10589F0C031D105F9F4C12CAA
:10208000D12CE12CB8E0FB2E28C0C12CD12CE12CA6
:10209000A0E4FA2E22C0CAE0D0E0FCECCF2EFCEC8B
:1020A000DF2EFCECEF2EFCE0FF2E17C0C8E0D0E0E6
:1020B000C12CD12CE12CE0E1FE2E0FC09E01442763
:1020C00037FD4095542F60E070E080E090E80E947A
:1020D0007AD3C901DA016C017D0120E030E040E0F3
:1020E00050E060E03E01882477FC8094982C70EDED
:1020F000B72EBA0CE9E0EB1570F48A2D81548A31C1
:1021000018F499ECB92E06C08A2D81568A3150F503
:1021100089EAB82EBA0C8B2D90E08C179D0714F528
:102120006F3FE1F0C216D306E406F506B0F0CA012F
:10213000B901A40193010E9434D39B01AC012B0D82
:10214000311D411D511D2130F0E03F07F0E04F07E8
:10215000F0E85F0710F461E001C06FEFF801A190B3
:102160008F01C5CF2114310481F0662331F0015075
:102170001040F1011183008308C051FE1AC00250C3
:102180001040F1011183008314C067FF12C050FC9E
:1021900005C02FEF3FEF4FEF5FE704C020E030E0D6
:1021A00040E050E882E290E09093E0108093DF10EE
:1021B00016C050FE08C050954095309521953F4F70
:1021C0004F4F5F4F0CC057FF0AC082E290E09093E0
:1021D000E0108093DF102FEF3FEF4FEF5FE7B90183
:1021E000CA01DF91CF911F910F91FF90EF90DF9087
:1021F000CF90BF90AF909F908F907F906F905F90A7
:102200003F902F900895FB01DC0105900D92002076
:10221000E1F70895FC0105900020E9F7809590957D
:102220008E0F9F1F0895FB01DC014150504088F044
:102230008D9181341CF08B350CF4805E6591613496
:102240001CF06B350CF4605E861B611171F3990B09
:102250000895881BFCCFFB01DC014150504048F041
:1022600005900D920020C9F701C01D9241505040C9
:10227000E0F70895FB0155915523A9F0BF01DC015A
:102280004D9145174111E1F759F4CD01059000201A
:1022900049F04D9140154111C9F3FB014111EFCFB8
:1022A00081E090E001970895FB01DC0104C08D916D
:1022B0000190801921F441505040C8F7881B990BB8
:1022C0000895FB01DC0102C001900D924150504085
:1022D000D8F70895FB01DC010D900020E9F7119774
:1022E00001900D920020E1F70895FC01819186177D
:1022F00021F08823D9F7992708953197CF010895C0
:10230000FB01DC0101900D920020E1F70895FB0133
:10231000DC014150504030F08D910190801919F44A
:102320000020B9F7881B990B0895FB01DC0141508F
:10233000504048F001900D920020C9F701C01D9255
:1023400041505040E0F70895AEE0B0E0EAEAF1E134
:102350000C94DED30E891F898EE08C831A83098347
:102360008FEF9FE79E838D839E01265E3F4FCE01B8
:102370000196688D798DA9010AD02F813885020FC9
:10238000131FF80110822E96E4E00C94FAD3ABE010
:10239000B0E0EDECF1E10C94D0D33C012B015A01FB
:1023A000FC0117821682838181FD03C06FEF7FEFEE
:1023B000B9C19AE0892E1E010894211C311CF30139
:1023C0002381F20123FD859123FF81912F01882331
:1023D00009F4A5C1853239F423FD859123FF81914C
:1023E0002F01853221F490E0B301B7D1E8CF982FC7
:1023F000FF24EE249924FFE1FF15D0F09B3269F011
:102400009C3228F4903259F0933291F40EC09D32F0
:1024100049F0903369F441E024C052E0F52A84E0A9
:10242000F82A28C098E0F92A25C0E0E1FE2A22C057
:10243000F7FC29C0892F80538A3070F4F6FE05C05E
:10244000989C902C1124980E15C0E89CE02C112427
:10245000E80EF0E2FF2A0EC09E3229F4F6FC5FC1BE
:1024600040E4F42A07C09C3619F450E8F52A02C06B
:10247000983649F4F20123FD959123FF91912F01A4
:10248000992309F0B8CF892F8554833018F08052F2
:10249000833038F444E050E0A40EB51E5FE3598366
:1024A0000FC0933631F0933779F0933509F052C06D
:1024B0001FC0F5018081898342E050E0A40EB51E63
:1024C000610101E010E011C0F501C080D180F6FC8F
:1024D00003C06FEF7FEF02C0692D70E042E050E073
:1024E000A40EB51EC6012ED18C015FE7F52213C0E4
:1024F000F501C080D180F6FC03C06FEF7FEF02C012
:10250000692D70E042E050E0A40EB51EC6010FD167
:102510008C0150E8F52AF3FE06C018C080E290E076
:10252000B3011BD1EA948E2D90E008171907B0F380
:102530000DC0F601F7FC8591F7FE81916F0190E0E7
:10254000B3010BD1E110EA940150104001151105BF
:1025500081F7E2C0943611F0993661F5F7FE08C0B4
:10256000F501208131814281538184E090E00AC0ED
:10257000F501808191819C01442737FD4095542FBE
:1025800082E090E0A80EB91E9FE6F92257FF09C02D
:1025900050954095309521953F4F4F4F5F4FE0E864
:1025A000FE2ACA01B901A1012AE030E002D1D82EE9
:1025B000D2183FC0953729F41F2D1F7E2AE030E046
:1025C0001DC01F2D197F9F3661F0903720F498357C
:1025D00009F0A5C00FC0903739F0983709F09FC0B7
:1025E00004C028E030E00AC0106114FD146020E14E
:1025F00030E004C014FD166020E132E017FF08C08F
:10260000F501608171818281938144E050E008C0CE
:10261000F50180819181BC0180E090E042E050E0D2
:10262000A40EB51EA101C5D0D82ED2188FE7F82E62
:10263000F122F6FE0BC05EEFF522D91438F4F4FE59
:1026400007C0F2FC05C08FEEF82202C01D2D01C0AC
:10265000192DF4FE0DC0FE01ED0DF11D80818033BA
:1026600019F499EEF92208C01F5FF2FE05C003C0FD
:102670008F2D867809F01F5F0F2DF3FC13C0F0FE3D
:102680000EC01E1510F09D2C0AC09D2C9E0C911A98
:102690001E2D05C080E290E0B3015FD01F5F1E15C4
:1026A000C8F304C01E1510F4E11A01C0EE2404FFA3
:1026B0000EC080E390E0B30150D002FF1BC001FDCB
:1026C00003C088E790E00EC088E590E00BC0802F43
:1026D000867881F001FF02C08BE201C080E2F7FC46
:1026E0008DE290E0B30139D005C080E390E0B30102
:1026F00034D09A94D914C8F3DA94F101ED0DF11D98
:10270000808190E0B30129D0DD20B1F705C080E2DF
:1027100090E0B30122D0EA94EE20C9F750CEF30145
:1027200066817781CB012B96E2E10C94ECD3FC011E
:102730000590615070400110D8F7809590958E0FEC
:102740009F1F0895FC016150704001900110D8F75F
:10275000809590958E0F9F1F08950F931F93CF9391
:10276000DF938C01EB018B8181FF1BC082FF0DC0C9
:102770002E813F818C819D812817390764F4E8817F
:10278000F9810193F983E88306C0E885F985802FF4
:102790001995892B31F48E819F8101969F838E83B9
:1027A00002C00FEF1FEFC801DF91CF911F910F9172
:1027B0000895FA01AA27283051F1203181F1E894D7
:1027C0006F936E7F6E5F7F4F8F4F9F4FAF4FB1E024
:1027D0003ED0B4E03CD0670F781F891F9A1FA11D1F
:1027E000680F791F8A1F911DA11D6A0F711D811D20
:1027F000911DA11D20D009F468943F912AE0269FE5
:1028000011243019305D3193DEF6CF010895462F43
:102810004770405D4193B3E00FD0C9F7F6CF462F24
:102820004F70405D4A3318F0495D31FD405241938D
:1028300002D0A9F7EACFB4E0A6959795879577954A
:102840006795BA95C9F700976105710508959B01D1
:10285000AC010A2E06945795479537952795BA955A
:10286000C9F7620F731F841F951FA01D0895FC01F7
:10287000128213820895FC018381882311F081E084
:1028800082830895FC018281811112820895CF9381
:10289000DF93DC01AC59BF4F8C91A456B0408250FD
:1028A000823050F1ED01CF59DF4FFD01E058FF4F6D
:1028B0008BE1019009928150E1F7FD01E15AFF4F50
:1028C000A258BF4F8D919C911197AE57B040918304
:1028D0008083ED01C058DF4FFD01E156FF4F8BE1D2
:1028E000019009928150E1F7A356BF4F8D919C91C1
:1028F00011975F978D939C93DF91CF910895FC0181
:1029000085E194E0918380838781882321F0CF0142
:1029100004960C94A66508950F931F93CF93DF93AD
:102920008C010E946C730E944973C8018F519F4FA4
:102930000E94A665F80112828FE291E00E945C4A33
:1029400080912C0A882301F110922C0A8091620652
:10295000C82FD0E0CC0FDD1FC85FD04F68817981D0
:10296000882777FD8095982F0E9424D020915E03C0
:1029700030915F0340916003509161030E9490D1B8
:10298000181614F419821882DF91CF911F910F91BC
:102990000895CF92DF92EF92FF920F931F93DF93F0
:1029A000CF93CDB7DEB76F970FB6F894DEBF0FBEEB
:1029B000CDBF8C016B010C591F4FD8018C9104566F
:1029C0001040882321F42CE3E22EF12C03C09DE576
:1029D000E92EF12CE00EF11E85E194E09A838983C3
:1029E0001C821B8218861D82B7016C5F7F4FCE014F
:1029F0000596A60121E00E94926C882391F5EBE3F5
:102A0000F1E0949108C08091C00085FFFCCF9093C5
:102A1000C600319694919923B1F7E1E4F1E09491E5
:102A200008C08091C00085FFFCCF9093C60031960E
:102A300094919923B1F709C08091C00085FFFCCF24
:102A40000894C11CD11C9093C600F6019081992373
:102A500099F78091C00085FFFCCF8AE08093C60083
:102A60003CC0D801A156BF4FF801E058FF4F8BE1A1
:102A700001900D928150E1F7F801E356FF4F0258A3
:102A80001F4FD8018D919C910E57104091838083E8
:102A9000D801A058BF4FF70134968BE101900D92F9
:102AA0008150E1F702581F4FF70182819381D801CD
:102AB0008D939C930E571040D801AF59BF4FFE0124
:102AC00035968BE101900D928150E1F7015A1F4F2D
:102AD0008B819C81F80191838083CE0101960FDF69
:102AE0006F960FB6F894DEBF0FBECDBFCF91DF91CA
:102AF0001F910F91FF90EF90DF90CF900895EF928C
:102B0000FF920F931F938C0131EEE32EF12CE80E10
:102B1000F91EC7010E945765C7010E94A665F8010A
:102B2000108211821F910F91FF90EF9008950F93E3
:102B30001F93FC01E05CFF4F108233961082E35438
:102B4000F04017AE16AE25E134E035AF24AFEF59B3
:102B5000FF4F108233961082359711821082329384
:102B60002293B39610823396108235971182108289
:102B700032932293B3961082339610823597118246
:102B8000108232932293B09689E18083339610822B
:102B9000789610823B961082339610823597118278
:102BA0001082329322937F961082118212821382B6
:102BB00038961082118212821382E450F140128200
:102BC0001382108211828F0100501F4FD8011D9275
:102BD0001D921D921C921397E85FFE4F81E0808347
:102BE000E850F14013AE12AE0E9485CB68577C4E80
:102BF0008F4F9F4FF80160837183828393831F916E
:102C00000F910895CF92DF92EF92FF920F931F934F
:102C1000CF93DF937C016B01DB010D900020E9F77E
:102C20008D0101501040061B170BE1EEF0E0EE0E97
:102C3000FF1ED7011C92EFE1FFEFEE0EFF1ECB014E
:102C40006EE470E052DBEC01009731F4F80131974B
:102C5000EC0DFD1D86010CC060E270E046DB8C01CE
:102C60000F5F1F4FCE016AE270E03FDBFC0131973E
:102C70008DE081838AE082831382C70183529F4F54
:102C8000B8010E948B6D81EE90E0E80EF91ED7012D
:102C90008C91882319F1EBE6F1E0949108C08091C2
:102CA000C00085FFFCCF9093C60031969491992384
:102CB000B1F7E2E7F1E0949108C08091C00085FF90
:102CC000FCCF9093C600319694919923B1F78091EF
:102CD000C00085FFFCCF8AE08093C600DF91CF91D2
:102CE0001F910F91FF90EF90DF90CF900895CF93B9
:102CF000DF93EC018B81882309F43BC0E1EAF1E02A
:102D0000949108C08091C00085FFFCCF9093C600CD
:102D1000319694919923B1F7CC5FDE4F4881598168
:102D20006A817B81C450D14084E295E02AE030E0A2
:102D30000E945029EFE9F1E0949108C08091C00011
:102D400085FFFCCF9093C600319694919923B1F7FB
:102D5000C450DF4F488159816A817B8184E295E0CC
:102D60002AE030E00E9450298091C00085FFFCCF0E
:102D700012C0E8E8F1E0949108C08091C00085FF9E
:102D8000FCCF9093C600319694919923B1F780912E
:102D9000C00085FFFCCF8AE08093C600DF91CF9111
:102DA00008952F923F924F925F926F927F928F92EF
:102DB0009F92AF92BF92CF92DF92EF92FF920F93CA
:102DC0001F93DF93CF93CDB7DEB7AC970FB6F894D0
:102DD000DEBF0FBECDBF5C014B01FC0183818823A8
:102DE00009F434C1C5018F519F4F0E94A665F501BA
:102DF00012821A8A1D8A198A188A85E194E09F87AF
:102E00008E875BE5C52ED12CCA0CDB1C2CE330E091
:102E1000A20EB31EF601B182A08224EC3FEFA20EF7
:102E2000B31EF40180818F3209F08DC0C4016FE2BE
:102E300070E05BDA7C010894E11CF11C3E0108940F
:102E4000611C711C260142E1242E312C2C0E3D1EEA
:102E500075C0C7016FE270E048DA6C01009709F4B1
:102E600080C0E816F90608F07CC08C010E191F0915
:102E7000C301B701A80159DA060D171DF801108228
:102E8000F30107C08091C00085FFFCCF319690937D
:102E9000C60090819923B1F78091C00085FFFCCFD7
:102EA000FAE0F093C600F20160817181611571054D
:102EB00019F460E070E002C06C5F7F4FC101A301B4
:102EC00021E00E94926C882371F5E4EEF1E0949188
:102ED00008C08091C00085FFFCCF9093C60031965A
:102EE00094919923B1F7FE01319607C08091C000FB
:102EF00085FFFCCF31969093C60090819923B1F75E
:102F0000E2EEF1E0949108C08091C00085FFFCCF13
:102F10009093C600319694919923B1F78091C000A7
:102F200085FFFCCF8DC02EE030E02C0F3D1FF2015D
:102F30003183208376010894E11CF11CE114F10433
:102F400009F087CF0BC08DE590E0A80EB91EF60101
:102F5000B182A08223EA3FEFA20EB31ED82C092D26
:102F600002C0DE2C0F2D8BE590E0A80EB91EF501F6
:102F70008081918125EA3FEFA20EB31E009719F4DC
:102F800080E090E001C004966D2D702F0E945E6D70
:102F9000882339F1E4EDF1E0949108C08091C000FC
:102FA00085FFFCCF9093C600319694919923B1F799
:102FB0008D2D902F9C01F90107C08091C00085FFE5
:102FC000FCCF31969093C60090819923B1F784E0AD
:102FD00091E0A80EB91EF5011082118212821382AF
:102FE00032C0ECEBF1E0949108C08091C00085FF05
:102FF000FCCF9093C600319694919923B1F78D2D13
:10300000902F9C01F90107C08091C00085FFFCCF83
:1030100031969093C60090819923B1F7EAEBF1E0E5
:10302000949108C08091C00085FFFCCF9093C600AA
:10303000319694919923B1F78091C00085FFFCCF20
:103040008AE08093C600CE010E9659DCAC960FB68E
:10305000F894DEBF0FBECDBFCF91DF911F910F91CE
:10306000FF90EF90DF90CF90BF90AF909F908F90A8
:103070007F906F905F904F903F902F9008952F9288
:103080003F924F925F926F927F928F929F92AF92F8
:10309000BF92CF92DF92EF92FF920F931F93DF9335
:1030A000CF93CDB7DEB7AD970FB6F894DEBF0FBEA6
:1030B000CDBF5C014B014DA7FC018381882309F43E
:1030C000E4C171EE472E512C4A0C5B1CC2010E94D8
:1030D000A665F50112821A8A1D8A198A188A85E165
:1030E00094E09F878E876BE5C62ED12CCA0CDB1C23
:1030F0008CE390E0A80EB91EF601B182A08284ECA8
:103100009FEFA80EB91EF40180818F3209F089C0AB
:10311000C4016FE270E0E9D87C010894E11CF11C65
:103120003E010894611C711C160176C0C7016FE254
:1031300070E0DBD86C01009709F481C0E816F9064D
:1031400008F07DC08C010E191F09C301B701A80149
:10315000ECD8060D171DF8011082F30107C080910D
:10316000C00085FFFCCF31969093C60090819923D3
:10317000B1F78091C00085FFFCCFFAE0F093C60064
:10318000F101608171816115710519F460E070E0F1
:1031900002C06C5F7F4FCE014296A30121E00E94E6
:1031A000926C882371F5ECE5F2E0949108C080916F
:1031B000C00085FFFCCF9093C6003196949199236F
:1031C000B1F7FE01319607C08091C00085FFFCCFAA
:1031D00031969093C60090819923B1F7EAE5F2E029
:1031E000949108C08091C00085FFFCCF9093C600E9
:1031F000319694919923B1F78091C00085FFFCCF5F
:1032000015C18EE090E08C0F9D1FF10191838083AA
:1032100076010894E11CF11CE114F10409F086CF59
:103220000BC0EDE5F0E0AE0EBF1EF601B182A0824C
:1032300083EA9FEFA80EB91E082DF92C01C00E2DB0
:10324000F501E55AFF4F9DA5992309F4ADC06081B2
:1032500071816115710519F460E070E002C06C5F66
:103260007F4FC201402F5F2D21E00E94926C882386
:1032700009F46AC0E2EFF0E0AE0EBF1EF501408136
:103280005181628173818AE090E0A80EB91EF50138
:10329000408351836283738384E09FEFA80EB91E3D
:1032A000ECE4F2E0949108C08091C00085FFFCCF6F
:1032B0009093C600319694919923B1F7802F9F2D5A
:1032C0009C01F90107C08091C00085FFFCCF3196B9
:1032D0009093C60090819923B1F7E4E4F2E09491D1
:1032E00008C08091C00085FFFCCF9093C600319646
:1032F00094919923B1F784E295E02AE030E00E94AE
:1033000050298091C00085FFFCCF8AE08093C600E1
:10331000E4E0F1E0AE0EBF1EF501108211821282D0
:103320001382E6E3F2E0949108C08091C00085FF2B
:10333000FCCF9093C600319694919923B1F7809178
:10334000C00085FFFCCF97C0E2E2F2E0949108C094
:103350008091C00085FFFCCF9093C6003196949178
:103360009923B1F7802F9F2D9C01F90107C080910F
:10337000C00085FFFCCF31969093C60090819923C1
:10338000B1F7E0E2F2E0949108C08091C00085FFBF
:10339000FCCF9093C600319694919923B1F7809118
:1033A000C00085FFFCCF42C060817181611571054D
:1033B00019F460E070E002C06C5F7F4FC201402FE3
:1033C0005F2D26E50E94926C882309F033C0ECE063
:1033D000F2E0949108C08091C00085FFFCCF9093EB
:1033E000C600319694919923B1F7802F9F2D9C01AF
:1033F000F90107C08091C00085FFFCCF3196909302
:10340000C60090819923B1F7EAE0F2E0949108C0F8
:103410008091C00085FFFCCF9093C60031969491B7
:103420009923B1F78091C00085FFFCCF8AE080939B
:10343000C60028C081E0F5018083E8EFF1E09491B7
:1034400008C08091C00085FFFCCF9093C6003196E4
:1034500094919923B1F7F40107C08091C00085FFD2
:10346000FCCF31969093C60090819923B1F780915B
:10347000C00085FFFCCF8AE08093C600802F9F2D7F
:103480000E94B3B0CE010E963ADAAD960FB6F8941C
:10349000DEBF0FBECDBFCF91DF911F910F91FF9087
:1034A000EF90DF90CF90BF90AF909F908F907F90E4
:1034B0006F905F904F903F902F900895FC0181E0B6
:1034C0008183CF0140E0DBCDEF92FF920F931F93FA
:1034D000CF93DF93EC011B82CD5BDF4F8881C35418
:1034E000D040882329F0CE01805C9F4F0E94A665C2
:1034F000EAEBEE2EF12CEC0EFD1EC70163E045E376
:103500000E945363882309F5EBE3F1E0949108C02E
:103510008091C00085FFFCCF9093C60031969491B6
:103520009923B1F7E0EAF2E0949108C08091C000DD
:1035300085FFFCCF9093C600319694919923B1F703
:103540008091C00085FFFCCF7DC08E0101541F4FCC
:10355000C801B70141E00E941C6E882341F5C801F3
:10356000B70140E00E941C6E882309F5EBE6F1E00C
:10357000949108C08091C00085FFFCCF9093C60055
:10358000319694919923B1F7EDE8F2E0949108C057
:103590008091C00085FFFCCF9093C6003196949136
:1035A0009923B1F78091C00085FFFCCF4BC0CE01BD
:1035B000805C9F4FB8010E949868882309F5EBE66C
:1035C000F1E0949108C08091C00085FFFCCF9093FA
:1035D000C600319694919923B1F7EDE7F2E094910A
:1035E00008C08091C00085FFFCCF9093C600319643
:1035F00094919923B1F78091C00085FFFCCF22C040
:1036000081E08B83EBE3F1E0949108C08091C000EE
:1036100085FFFCCF9093C600319694919923B1F722
:10362000E0E7F2E0949108C08091C00085FFFCCFF4
:103630009093C600319694919923B1F78091C00080
:1036400085FFFCCF8AE08093C600DE01AF59BF4FF3
:10365000FE01E05CFF4F8BE101900D928150E1F79C
:103660008EAD9FADC15ADF4F99838883CF55D0402F
:10367000CE01CC96C55ADF4F99838883DF91CF91D5
:103680001F910F91FF90EF9008952F923F924F92CC
:103690005F926F927F929F92AF92BF92CF92DF9292
:1036A000EF92FF920F931F93DF93CF93CDB7DEB7C7
:1036B000CC55D0400FB6F894DEBF0FBECDBF6C0125
:1036C000662311F528E031E0C20ED31ED6018C919D
:1036D000E8EFFEEFCE0EDF1E882309F4E3C020E002
:1036E00031E0C20ED31ED601ED90FD900D911C91DC
:1036F000E0E0FFEFCE0EDF1E0E9485CBE616F70658
:103700000807190708F4CEC028E031E0C20ED31E26
:10371000D6011C92E8EFFEEFCE0EDF1ED601139607
:103720008C91882339F4C601CFDEF601838188238A
:1037300009F4B8C000D000D0EDB7FEB731967E01D5
:103740000894E11CF11CADB7BEB71296FC92EE9244
:10375000119782E691E093838283D601DA968D9168
:103760009C91DB97958384830E94A4118701EDB718
:10377000FEB736960FB6F894FEBF0FBEEDBF5701E9
:103780000AC0D8018C91992787FD90950E94C5D3D6
:10379000F80181938F01F50101900020E9F731973D
:1037A000EA19FB09802F8E198E175CF310E4A12E05
:1037B000B12CAC0CBD1CC50140E050E060E070E0F5
:1037C0000E948D649924BDE3EB2EF12CEC0EFD1EBE
:1037D0002E010894411C511CAFE16A2E712C6C0E15
:1037E0007D1EFBE52F2EF1E03F2E42C0D8018C91CB
:1037F00090E00E94C5D3F80181938F01D7010D900D
:103800000020E9F71197AE19BF09802F8E198A178A
:103810006CF327968FAD27978E3751F1C701B20110
:1038200045E050E00E948711009711F500D000D0CC
:10383000EDB7FEB73196ADB7BEB712967C926E92D9
:10384000119733822282558244820E94A411EDB7DF
:10385000FEB736960FB6F894FEBF0FBEEDBFC3019C
:103860000E94D54A87E591E00E945C4A992493948E
:10387000C501B70140E050E00E94B767181614F484
:103880008701BCCF992041F48FEF9FEFD601DB96E3
:103890009C938E93DA9706C0F60182AD93AD0196A4
:1038A00093AF82AFC45ADF4F0FB6F894DEBF0FBE9E
:1038B000CDBFCF91DF911F910F91FF90EF90DF90DF
:1038C000CF90BF90AF909F907F906F905F904F9000
:1038D0003F902F9008952F923F924F925F926F9258
:1038E0007F928F929F92AF92BF92CF92DF92EF9290
:1038F000FF920F931F93DF93CF93CDB7DEB7CF58CF
:10390000D0400FB6F894DEBF0FBECDBF8C013B0197
:103910006A0184E090E0C80ED91EF8017196C7577D
:10392000DF4FF983E883C958D040C8010496CA57CD
:10393000DF4F99838883C658D040C857DF4F18821D
:10394000C858D04046E6E42EF12CEC0EFD1EF701DF
:103950003B96C557DF4FF983E883CB58D04039E019
:10396000832E31E0932E800E911E2BE0A22E21E0BB
:10397000B22EA00EB11E9EE0292E312C2C0E3D1E23
:1039800087E4482E512C4C0E5D1EC2010496C3578D
:10399000DF4F99838883CD58D040EBE3F1E09491D9
:1039A000C157DF4F9883CF58D0404EC1F701838570
:1039B000482F50E0BA01687170706031710509F0EC
:1039C00051C1F401208131812130310509F44AC10E
:1039D0002230310509F446C1F701DE0111969081CC
:1039E000903239F08E2F8E19883011F48EE28D933B
:1039F0009D933196C557DF4F88819981CB58D04030
:103A0000E817F90761F71C921E86F301808188236D
:103A100029F4C10160E072E00E946A11C101B301A2
:103A20000E946A11C101BE016F5F7F4F0E946A113F
:103A3000C10160E072E00E946A111CA61FA61BA6CD
:103A40001AA685E194E099A788A7CE018C96B601C5
:103A5000AE014F5F5F4F21E00E94926C882309F016
:103A60003FC0F40180819181892BD1F5C157DF4F8F
:103A70009881CF58D040EBE3F1E008C08091C000BE
:103A800085FFFCCF9093C600319694919923B1F7AE
:103A9000E2E0F2E007C08091C00085FFFCCF3196E4
:103AA0009093C60090819923B1F78091C00085FF63
:103AB000FCCFFAE0F093C600FE01319607C080917A
:103AC000C00085FFFCCF31969093C600908199236A
:103AD000B1F78091C00085FFFCCF8AE08093C600DB
:103AE000C357DF4FA881B981CD58D040FE01BC96A5
:103AF0008BE101900D928150E1F78AA59BA5F2011F
:103B00009383828385E194E091838083C801B1012E
:103B1000A201E1DEC2010E947F14CE0188960E94BC
:103B20007F1492C0953E09F48FC09E3209F48CC078
:103B30009F3509F489C0F8019189992331F09E32AB
:103B400009F482C09F3509F47FC043FD7DC080E049
:103B50006031710509F481E0F80181AF882349F4EF
:103B6000F7018085873409F06FC081858E3709F4AD
:103B70006BC0CA57DF4FA881B981C658D040F70142
:103B80008081803241F08E2F8E19883011F48EE2C0
:103B90008D9380818D933196C557DF4F88819981B0
:103BA000CB58D040E817F90759F71C92F4018081EF
:103BB0009181009729F5F30107C08091C00085FF2E
:103BC000FCCF31969093C60090819923B1F7CA57E4
:103BD000DF4FE881F981C658D04007C08091C0000E
:103BE00085FFFCCF31969093C60090819923B1F761
:103BF0008091C00085FFFCCFFAE0F093C60024C09E
:103C00008130910539F4F50180819181019691838C
:103C100080831AC00297C1F4C857DF4FF881C85893
:103C2000D0402F2F30E0F50180819181281739078E
:103C3000F1F0C857DF4FF881C858D040FF5FC85730
:103C4000DF4FF883C858D040C601B701C757DF4FD0
:103C500048815981C958D0400E94B76718160CF4A2
:103C6000A5CE05C0F7019081992309F05BCFC1571C
:103C7000DF4F0FB6F894DEBF0FBECDBFCF91DF91FF
:103C80001F910F91FF90EF90DF90CF90BF90AF907A
:103C90009F908F907F906F905F904F903F902F906C
:103CA0000895EF92FF920F931F93DF93CF93CDB7B9
:103CB000DEB76F970FB6F894DEBF0FBECDBF7C01A5
:103CC0008C01055A1F4F835A9F4FF80191838083BF
:103CD00029E031E0E20EF31E21E030E0F70121930C
:103CE00031937F011182108225EF3EEFE20EF31E29
:103CF000049640E050E060E070E00E948D64F801BE
:103D000020813181DE011596F90134968BE1019015
:103D10000D928150E1F7F901828193819C838B831D
:103D200085E194E09A838983C70165E172E08E01A1
:103D30000F5F1F4FA801CFDDC8010E947F14F7015C
:103D4000E55FFE4F808191816F960FB6F894DEBFDC
:103D50000FBECDBFCF91DF911F910F91FF90EF90DC
:103D60000895EF92FF920F931F93DF93CF93CDB7F8
:103D7000DEB76F970FB6F894DEBF0FBECDBF7C01E4
:103D80008C01055A1F4F835A9F4FF80191838083FE
:103D900029E031E0E20EF31E22E030E0F70131834A
:103DA000208327EF3EEFE20EF31EF701E55FFE4FA3
:103DB00060831182049640E050E060E070E00E9471
:103DC0008D64F80120813181DE011596F901349668
:103DD0008BE101900D928150E1F7F901828193818D
:103DE0009C838B8385E194E09A838983C70165E195
:103DF00072E08E010F5F1F4FA8016DDDC8010E94A8
:103E00007F146F960FB6F894DEBF0FBECDBFCF9173
:103E1000DF911F910F91FF90EF900895EF92FF9225
:103E20000F931F93DF93CF93CDB7DEB76F970FB686
:103E3000F894DEBF0FBECDBF7C0189E091E0E80EB3
:103E4000F91EF7011182108287EF9EEFE80EF91E2E
:103E50008701005C1F4FC80140E050E060E070E067
:103E60000E948D64DE011596F8018BE101900D92A0
:103E70008150E1F7F70186AD97AD9C838B8385E197
:103E800094E09A838983C70165E172E08E010F5F38
:103E90001F4FA80120DDC8010E947F146F960FB646
:103EA000F894DEBF0FBECDBFCF91DF911F910F9170
:103EB000FF90EF900895DF93CF93CDB7DEB72897AB
:103EC0000FB6F894DEBF0FBECDBF80911602909161
:103ED0001702A0911802B091190289839A83AB83CB
:103EE000BC83FE01319684E690E02081F999FECFF3
:103EF0001FBA92BD81BD20BD0FB6F894FA9AF99A07
:103F00000FBE01968836910511F03196EECFE0EDA7
:103F1000F9E02081F999FECF1FBA92BD81BD20BD85
:103F20000FB6F894FA9AF99A0FBE01968837910560
:103F300011F03196EECFE0ECF9E02081F999FECF57
:103F40001FBA92BD81BD20BD0FB6F894FA9AF99AB6
:103F50000FBE01968838910511F03196EECFE0EE54
:103F6000F9E02081F999FECF1FBA92BD81BD20BD35
:103F70000FB6F894FA9AF99A0FBE0196883991050E
:103F800011F03196EECFE4EFF9E02081F999FECF00
:103F90001FBA92BD81BD20BD0FB6F894FA9AF99A66
:103FA0000FBE01968C39910511F03196EECFE8EFF6
:103FB000F9E02081F999FECF1FBA92BD81BD20BDE5
:103FC0000FB6F894FA9AF99A0FBE0196803A9105C5
:103FD00011F03196EECFE0EFF9E02081F999FECFB4
:103FE0001FBA92BD81BD20BD0FB6F894FA9AF99A16
:103FF0000FBE0196843A910511F03196EECFE8E0BC
:10400000FAE02081F999FECF1FBA92BD81BD20BD93
:104010000FB6F894FA9AF99A0FBE0196883A91056C
:1040200011F03196EECFECEBF9E02081F999FECF5B
:104030001FBA92BD81BD20BD0FB6F894FA9AF99AC5
:104040000FBE01968C3A910511F03196EECFECEF50
:10405000F9E02081F999FECF1FBA92BD81BD20BD44
:104060000FB6F894FA9AF99A0FBE0196803B910523
:1040700011F03196EECFE0E0FAE02081F999FECF21
:104080001FBA92BD81BD20BD0FB6F894FA9AF99A75
:104090000FBE0196843B910511F03196EECFE4E01E
:1040A000FAE02081F999FECF1FBA92BD81BD20BDF3
:1040B0000FB6F894FA9AF99A0FBE0196883B9105CB
:1040C00011F03196EECFEAE4F6E02081F999FECFC7
:1040D0001FBA92BD81BD20BD0FB6F894FA9AF99A25
:1040E0000FBE0196843C910511F03196EECFEAE7C0
:1040F000FFE02081F999FECF1FBA92BD81BD20BD9E
:104100000FB6F894FA9AF99A0FBE0196863C91057B
:1041100011F03196EECFECE7FFE02081F999FECF68
:104120001FBA92BD81BD20BD0FB6F894FA9AF99AD4
:104130000FBE0196883C910511F03196EECFEEE767
:10414000FFE02081F999FECF1FBA92BD81BD20BD4D
:104150000FB6F894FA9AF99A0FBE01968A3C910527
:1041600011F03196EECFE0E8FFE02081F999FECF23
:104170001FBA92BD81BD20BD0FB6F894FA9AF99A84
:104180000FBE01968C3C910511F03196EECFE2E81E
:10419000FFE02081F999FECF1FBA92BD81BD20BDFD
:1041A0000FB6F894FA9AF99A0FBE01968E3C9105D3
:1041B00011F03196EECFE4E8FFE02081F999FECFCF
:1041C0001FBA92BD81BD20BD0FB6F894FA9AF99A34
:1041D0000FBE0196803D910511F03196EECFEBE6D2
:1041E000F3E02081F999FECF1FBA92BD81BD20BDB9
:1041F0000FB6F894FA9AF99A0FBE0196843D91058C
:1042000011F03196EECFEFE6F3E02081F999FECF81
:104210001FBA92BD81BD20BD0FB6F894FA9AF99AE3
:104220000FBE0196883D910511F03196EECFE3E780
:10423000F3E02081F999FECF1FBA92BD81BD20BD68
:104240000FB6F894FA9AF99A0FBE8B3D910519F0C2
:1042500001963196EECF80911A0290911B02A091A7
:104260001C02B0911D028D839E83AF83B887FE012F
:10427000359684E690E02081F999FECF1FBA92BD71
:1042800081BD20BD0FB6F894FA9AF99A0FBE873611
:10429000910519F001963196EECFE4EBF2E094919E
:1042A00008C08091C00085FFFCCF9093C600319676
:1042B00094919923B1F7EEEBF4E0949108C08091CA
:1042C000C00085FFFCCF9093C6003196949199234E
:1042D000B1F78091C00085FFFCCF8AE08093C600D3
:1042E00028960FB6F894DEBF0FBECDBFCF91DF91F9
:1042F0000895EF92FF920F931F93DF93CF93CDB763
:10430000DEB7E0970FB6F894DEBF0FBECDBFDE017B
:104310001196E5ECF3E080E101900D928150E1F718
:10432000DE015196E5EBF3E080E101900D928150C2
:10433000E1F7DE019196E5EAF3E080E101900D926C
:104340008150E1F789819A81AB81BC818093D0094A
:104350009093D109A093D209B093D30989899A89FE
:10436000AB89BC898093C0099093C109A093C2090D
:10437000B093C30989A19AA1ABA1BCA18093E00924
:104380009093E109A093E209B093E3098D819E81A6
:10439000AF81B8858093D4099093D509A093D609AD
:1043A000B093D7098D899E89AF89B88D8093C40950
:1043B0009093C509A093C609B093C7098DA19EA18A
:1043C000AFA1B8A58093E4099093E509A093E6090D
:1043D000B093E70989859A85AB85BC858093D80918
:1043E0009093D909A093DA09B093DB09898D9A8D4E
:1043F000AB8DBC8D8093C8099093C909A093CA095D
:10440000B093CB0989A59AA5ABA5BCA58093E80973
:104410009093E909A093EA09B093EB098D859E85F5
:10442000AF85B8898093DC099093DD09A093DE09FC
:10443000B093DF098D8D9E8DAF8DB8A18093CC098F
:104440009093CD09A093CE09B093CF098DA59EA5D9
:10445000AFA5B8A98093EC099093ED09A093EE095C
:10446000B093EF090E94F34F80E090E0A6E1B4E43E
:104470008093F4099093F509A093F609B093F70996
:1044800080E090E0AAE7B4E48093F8099093F909FA
:10449000A093FA09B093FB0920E030E040E050E03F
:1044A0002093F0093093F1094093F2095093F309F6
:1044B00080E29EE4A0E0B0E08093BC099093BD0947
:1044C000A093BE09B093BF092093080A3093090A4C
:1044D00040930A0A50930B0A0F2EF0E0EF2EF0E003
:1044E000FF2EF0EA0F2FF0E41F2FF02DE092FC09D1
:1044F000F092FD090093FE091093FF098DEC9CECEE
:10450000ACECBEE38093000A9093010AA093020AE8
:10451000B093030AE092040AF092050A0093060A97
:104520001093070A20935206309353064093540683
:104530005093550620934E0630934F0640935006F5
:104540005093510620934A0630934B0640934C06F5
:1045500050934D0684EB90E090937B0F80937A0FFD
:1045600086E490E090937D0F80937C0F2FEF30E0F6
:1045700030937F0F20937E0F80EF90E09093810F18
:104580008093800F84E690E09093830F8093820F56
:104590003093850F2093840F82E598EBA4EBB1E470
:1045A00080936B0390936C03A0936D03B0936E03A1
:1045B0006CE57FE882EC9FE30E94477C60936F0389
:1045C0007093700380937103909372036FE872E4A9
:1045D00087EA92E40E94537C6093730370937403A0
:1045E00080937503909376030E94417B80E090E076
:1045F000A0E8BFE38093770390937803A0937903B7
:10460000B0937A03E4EBF2E0949108C08091C0008B
:1046100085FFFCCF9093C600319694919923B1F712
:10462000EAEBF2E0949108C08091C00085FFFCCFD6
:104630009093C600319694919923B1F78091C00070
:1046400085FFFCCF8AE08093C600E0960FB6F89411
:10465000DEBF0FBECDBFCF91DF911F910F91FF90B5
:10466000EF900895CF93DF93C4EBD2E0FE019491D5
:1046700008C08091C00085FFFCCF9093C6003196A2
:1046800094919923B1F7EEEAF4E0949108C08091F7
:10469000C00085FFFCCF9093C6003196949199237A
:1046A000B1F78091C00085FFFCCF8AE08093C600FF
:1046B000FE019491E4EBF2E008C08091C00085FF18
:1046C000FCCF9093C600319694919923B1F7409115
:1046D000D0095091D1096091D2097091D30986EA2D
:1046E00094E00E94BF2F4091D4095091D509609168
:1046F000D6097091D70983EA94E00E94BF2F4091B8
:10470000D8095091D9096091DA097091DB0980EAE2
:1047100094E00E94BF2F4091DC095091DD09609127
:10472000DE097091DF098DE994E00E94BF2FEEE170
:10473000F2E007C08091C00085FFFCCF31969093D6
:10474000C60090819923B1F78091C00085FFFCCF0E
:104750008AE08093C600FE019491E4EBF2E008C089
:104760008091C00085FFFCCF9093C6003196949154
:104770009923B1F7E3E8F4E0949108C08091C00078
:1047800085FFFCCF9093C600319694919923B1F7A1
:104790008091C00085FFFCCF8AE08093C600FE01B7
:1047A0009491E4EBF2E008C08091C00085FFFCCF5B
:1047B0009093C600319694919923B1F74091C00926
:1047C0005091C1096091C2097091C3098AE794E0D0
:1047D0000E94BF2F4091C4095091C5096091C6093C
:1047E0007091C70987E794E00E94BF2F4091C809E4
:1047F0005091C9096091CA097091CB0984E794E08E
:104800000E94BF2F4091CC095091CD096091CE09F3
:104810007091CF0981E794E00E94BF2FEEE1F2E0B2
:1048200007C08091C00085FFFCCF31969093C600F1
:1048300090819923B1F78091C00085FFFCCF8AE079
:104840008093C600FE019491E4EBF2E008C08091F1
:10485000C00085FFFCCF9093C600319694919923B8
:10486000B1F7E3E5F4E0949108C08091C00085FFC2
:10487000FCCF9093C600319694919923B1F7809123
:10488000C00085FFFCCF8AE08093C600FE019491B2
:10489000E4EBF2E008C08091C00085FFFCCF90936C
:1048A000C600319694919923B1F74091E009509157
:1048B000E1096091E2097091E3098AE494E00E94C1
:1048C000D12F4091E4095091E5096091E60970917A
:1048D000E70987E494E00E94D12F4091E8095091C4
:1048E000E9096091EA097091EB0984E494E00E947F
:1048F000D12F4091EC095091ED096091EE09709132
:10490000EF0981E494E00E94D12FEEE1F2E007C0CC
:104910008091C00085FFFCCF31969093C6009081B6
:104920009923B1F78091C00085FFFCCF8AE0809386
:10493000C600FE019491E4EBF2E008C08091C00053
:1049400085FFFCCF9093C600319694919923B1F7DF
:10495000ECE0F4E0949108C08091C00085FFFCCFAA
:104960009093C600319694919923B1F78091C0003D
:1049700085FFFCCF8AE08093C600FE019491E4EBB2
:10498000F2E008C08091C00085FFFCCF9093C60084
:10499000319694919923B1F74091F4095091F5091A
:1049A0006091F6097091F70983E094E00E94BF2FAF
:1049B0004091F8095091F9096091FA097091FB0949
:1049C00080E094E00E94BF2FEEE1F2E007C080910A
:1049D000C00085FFFCCF31969093C600908199234B
:1049E000B1F78091C00085FFFCCF8AE08093C600BC
:1049F000FE019491E4EBF2E008C08091C00085FFD5
:104A0000FCCF9093C600319694919923B1F7EDE4D1
:104A1000F3E0949108C08091C00085FFFCCF909393
:104A2000C600319694919923B1F78091C00085FF1B
:104A3000FCCF8AE08093C600FE019491E4EBF2E0A3
:104A400008C08091C00085FFFCCF9093C6003196CE
:104A500094919923B1F74091F0095091F109609137
:104A6000F2097091F30984E493E00E94BF2F409112
:104A7000080A5091090A60910A0A70910B0A81E4B0
:104A800093E00E94BF2F4091BC095091BD096091F5
:104A9000BE097091BF098EE393E00E94D12F40912F
:104AA000FC095091FD096091FE097091FF098BE3AB
:104AB00093E00E94BF2F4091000A5091010A60913B
:104AC000020A7091030A88E393E00E94BF2F40918D
:104AD000040A5091050A6091060A7091070A85E35D
:104AE00093E00E94BF2FEEE1F2E007C08091C0008A
:104AF00085FFFCCF31969093C60090819923B1F742
:104B00008091C00085FFFCCF8AE08093C600FE0143
:104B10009491E4EBF2E008C08091C00085FFFCCFE7
:104B20009093C600319694919923B1F7E3E2F3E0B4
:104B3000949108C08091C00085FFFCCF9093C6007F
:104B4000319694919923B1F78091C00085FFFCCFF5
:104B50008AE08093C600FE019491E4EBF2E008C085
:104B60008091C00085FFFCCF9093C6003196949150
:104B70009923B1F740914A0650914B0660914C063B
:104B800070914D068AE193E00E94BF2F40914E063E
:104B900050914F06609150067091510687E193E065
:104BA0000E94BF2F409152065091530660915406C7
:104BB0007091550684E193E00E94BF2FEEE1F2E090
:104BC00007C08091C00085FFFCCF31969093C6004E
:104BD00090819923B1F78091C00085FFFCCF8AE0D6
:104BE0008093C600FE019491E4EBF2E008C080914E
:104BF000C00085FFFCCF9093C60031969491992315
:104C0000B1F7E6E0F3E0949108C08091C00085FF21
:104C1000FCCF9093C600319694919923B1F780917F
:104C2000C00085FFFCCF8AE08093C600FE0194910E
:104C3000E4EBF2E008C08091C00085FFFCCF9093C8
:104C4000C600319694919923B1F740916B0350912E
:104C50006C0360916D0370916E038CEF92E00E9483
:104C6000BF2F60916F0370917003809171039091D9
:104C700072030E944D7CAB01BC0189EF92E00E945F
:104C8000BF2F6091730370917403809175039091AD
:104C900076030E94597CAB01BC0186EF92E00E9432
:104CA000BF2FEEE1F2E007C08091C00085FFFCCF8E
:104CB00031969093C60090819923B1F78091C000FE
:104CC00085FFFCCF8AE08093C600DF91CF910895E5
:104CD0000F931F93DF93CF93CDB7DEB728970FB60F
:104CE000F894DEBF0FBECDBF80911A0290911B02D7
:104CF000A0911C02B0911D028D839E83AF83B88763
:104D0000FE01319604E610E0F999FECF12BD01BD17
:104D1000F89A80B580830F5F1F4F0836110511F098
:104D20003196F2CFCE010596BE016F5F7F4F43E013
:104D300050E00E948711009709F078C1E0EDF9E09A
:104D4000F999FECF12BD01BDF89A80B580830F5F3F
:104D50001F4F0837110511F03196F2CFE0ECF9E062
:104D6000F999FECF12BD01BDF89A80B580830F5F1F
:104D70001F4F0838110511F03196F2CFE0EEF9E03F
:104D8000F999FECF12BD01BDF89A80B580830F5FFF
:104D90001F4F0839110511F03196F2CF0E94F34FE1
:104DA000E4EFF9E0F999FECF12BD01BDF89A80B5A4
:104DB00080830F5F1F4F0C39110511F03196F2CF30
:104DC000E8EFF9E0F999FECF12BD01BDF89A80B580
:104DD00080830F5F1F4F003A110511F03196F2CF1B
:104DE000E0EFF9E0F999FECF12BD01BDF89A80B568
:104DF00080830F5F1F4F043A110511F03196F2CFF7
:104E0000E8E0FAE0F999FECF12BD01BDF89A80B54D
:104E100080830F5F1F4F083A110511F03196F2CFD2
:104E2000ECEBF9E0F999FECF12BD01BDF89A80B51F
:104E300080830F5F1F4F0C3A110511F03196F2CFAE
:104E4000ECEFF9E0F999FECF12BD01BDF89A80B5FB
:104E500080830F5F1F4F003B110511F03196F2CF99
:104E6000E0E0FAE0F999FECF12BD01BDF89A80B5F5
:104E700080830F5F1F4F043B110511F03196F2CF75
:104E8000E4E0FAE0F999FECF12BD01BDF89A80B5D1
:104E900080830F5F1F4F083B110511F03196F2CF51
:104EA000EAE4F6E0F999FECF12BD01BDF89A80B5AB
:104EB00080830F5F1F4F043C110511F03196F2CF34
:104EC000EAE7FFE0F999FECF12BD01BDF89A80B57F
:104ED00080830F5F1F4F063C110511F03196F2CF12
:104EE000ECE7FFE0F999FECF12BD01BDF89A80B55D
:104EF00080830F5F1F4F083C110511F03196F2CFF0
:104F0000EEE7FFE0F999FECF12BD01BDF89A80B53A
:104F100080830F5F1F4F0A3C110511F03196F2CFCD
:104F2000E0E8FFE0F999FECF12BD01BDF89A80B527
:104F300080830F5F1F4F0C3C110511F03196F2CFAB
:104F4000E2E8FFE0F999FECF12BD01BDF89A80B505
:104F500080830F5F1F4F0E3C110511F03196F2CF89
:104F6000E4E8FFE0F999FECF12BD01BDF89A80B5E3
:104F700080830F5F1F4F003D110511F03196F2CF76
:104F8000EBE6F3E0F999FECF12BD01BDF89A80B5CA
:104F900080830F5F1F4F043D110511F03196F2CF52
:104FA000EFE6F3E0F999FECF12BD01BDF89A80B5A6
:104FB00080830F5F1F4F083D110511F03196F2CF2E
:104FC000E3E7F3E0F999FECF12BD01BDF89A80B591
:104FD00080830B3D110521F00F5F1F4F3196F2CFFB
:104FE0000E94417BE4EBF2E0949108C08091C00004
:104FF00085FFFCCF9093C600319694919923B1F729
:10500000ECEDF2E0949108C08091C00085FFFCCFE8
:105010009093C600319694919923B1F78091C00086
:1050200085FFFCCF8AE08093C60001C062D91ADBFD
:1050300028960FB6F894DEBF0FBECDBFCF91DF919B
:105040001F910F9108951F920F920FB60F920BB6FA
:105050000F9211242F933F934F938F939F93EF932E
:10506000FF934091C600E0912005F0912105319613
:105070009F012F7730703197809122059091230501
:105080002817390739F0E056FB4F4083309321054C
:1050900020932005FF91EF919F918F914F913F9128
:1050A0002F910F900BBE0F900FBE0F901F90189571
:1050B0009A01AB01203081EE380780E0480780E09C
:1050C000580749F182E08093C00060E079E08DE309
:1050D00090E00E949CD32150304040405040CA0193
:1050E000B90122E030E040E050E00E949CD33093D0
:1050F000C5002093C4008091C10080618093C100ED
:105100008091C10088608093C1008091C100806857
:105110008093C10008951092C00020E130E0E7CFF5
:105120002091220530912305809120059091210541
:105130008217930719F42FEF3FEF0EC0F901E056E5
:10514000FB4F80812F5F3F4F2F77307030932305C7
:1051500020932205282F30E0C9010895809122056F
:10516000909123059093210580932005089508953B
:105170002F923F924F925F926F927F928F929F9267
:10518000AF92BF92CF92DF92EF92FF920F931F9355
:10519000DF93CF93CDB7DEB7A0970FB6F894DEBFFD
:1051A0000FBECDBF1C016A017B0141155105610590
:1051B000710541F440E350E060E070E020E030E051
:1051C0008BD055C0882499245401422E552466243E
:1051D000772401E010E00C0F1D1F080D191DC701F9
:1051E000B601A30192010E947AD3F801608308946A
:1051F000811C911CA11CB11CC701B601A301920125
:105200000E947AD3C901DA016C017D01C114D10475
:10521000E104F104F1F681E0E82EF12CEC0EFD1E24
:10522000E80CF91C3E010894611C711CD501C401F5
:105230000197A109B1096C01C818D90815C0F60178
:10524000EE0DFF1D40814A3010F4405D01C0495C05
:10525000552747FD5095652F752FC10120E030E09F
:105260003BD00894E108F1086E147F0441F7A09642
:105270000FB6F894DEBF0FBECDBFCF91DF911F9167
:105280000F91FF90EF90DF90CF90BF90AF909F90E5
:105290008F907F906F905F904F903F902F900895E8
:1052A0002115310539F48091C00085FFFCCF409372
:1052B000C60008955DCFEF92FF920F931F939A015E
:1052C000E62EFF2400E010E0B801A701E9DF1F91FE
:1052D0000F91FF90EF900895EF92FF920F931F931D
:1052E000CF93DF93EC017A018B012115310539F45D
:1052F0008091C00085FFFCCFE092C60019C02A3023
:105300003105A9F477FF0FC04DE250E060E070E096
:1053100020E030E0E1DF10950095F094E094E11C8E
:10532000F11C011D111DCE01B801A7012AE020DFEB
:10533000DF91CF911F910F91FF90EF900895EF9221
:10534000FF920F931F937B019A010027F7FC0095B2
:10535000102FB801A701C0DF1F910F91FF90EF90B0
:1053600008950F931F938C014DE050E060E070E0D2
:1053700020E030E0B1DFC8014AE050E060E070E0DA
:1053800020E030E0A9DF1F910F910895CF92DF92C6
:10539000EF92FF920F931F938C019A016B01EE2401
:1053A000FF24B701A6017CDFC801DBDF1F910F914D
:1053B000FF90EF90DF90CF9008959F92AF92BF92B1
:1053C000CF92DF92EF92FF920F931F93CF93DF93D1
:1053D000EC017A018B01922ECB01BA0120E030E082
:1053E00040E050E00E9482CF882364F4CE014DE279
:1053F00050E060E070E020E030E06EDF17FB1095D9
:1054000017F9109520E030E040E05FE3AA240BC0DC
:10541000CA01B90120E030E040E251E40E9489CFA6
:105420009B01AC01A394A91498F3C801B7010E9491
:10543000A9CE7B018C010E94F6CF5B016C010E941A
:1054400022D09B01AC01C801B7010E94A8CE7B010C
:105450008C01CE01B601A5012AE030E021DF9920C0
:1054600099F1EFE1F2E007C08091C00085FFFCCF29
:1054700031969093C60090819923B1F725C0C80159
:10548000B70120E030E040E251E40E9462D27B01AB
:105490008C010E94F1CF5B016C01CC24B7FCC0945D
:1054A000DC2CCE01B601A5012AE030E015DFC601F3
:1054B000B5010E9424D09B01AC01C801B7010E9434
:1054C000A8CE7B018C019A949920C9F6DF91CF91E7
:1054D0001F910F91FF90EF90DF90CF90BF90AF9012
:1054E0009F9008956ACF0895EF92FF920F931F93B4
:1054F000CF93DF93EC01E0905606F09057060091B1
:10550000580610915906688179818A819B81A8018A
:1055100097010E9482CF882324F4E882F9820A83CB
:105520001B83E0905A06F0905B0600915C06109198
:105530005D066C817D818E819F81A80197010E940B
:1055400082CF882324F4EC82FD820E831F83E090B7
:105550005E06F0905F060091600610916106688516
:1055600079858A859B85A80197010E9482CF88232F
:1055700024F4E886F9860A871B87E0904503F090BB
:1055800046030091470310914803688179818A811D
:105590009B81A80197010E9490D1181624F4E882FB
:1055A000F9820A831B83E0904903F0904A0300913B
:1055B0004B0310914C036C817D818E819F81A801EA
:1055C00097010E9490D1181624F4EC82FD820E837C
:1055D0001F83E0904D03F0904E0300914F03109114
:1055E0005003688579858A859B85A80197010E946B
:1055F00090D1181624F4E886F9860A871B87DF9174
:10560000CF911F910F91FF90EF90089580916D06BB
:1056100008958130910541F46F5F7F4F09F051C0CB
:1056200085E295E00C949715892B09F04AC06F5FCD
:105630007F4F09F046C085E194E090930306809384
:10564000020680910906882321F086E096E00E94F8
:10565000A66585E194E09093C1058093C005809193
:10566000C705882321F084EC95E00E94A66585E1BA
:1056700094E09093A2058093A1058091A8058823CA
:1056800021F085EA95E00E94A66585E194E090937B
:1056900083058093820580918905882321F086E81F
:1056A00095E00E94A66585E194E090936205809361
:1056B000610580916805882321F085E695E00C94CA
:1056C000A665089580E090E06FEF7FEFA2CF81E0C4
:1056D00090E06FEF7FEF9DCF0E942A7C80916D0656
:1056E000882309F03AC081E080936D0680916F06AF
:1056F00090917006A0917106B09172068093730626
:1057000090937406A0937506B0937606E4EDF4E0EA
:10571000949108C08091C00085FFFCCF9093C60093
:10572000319694919923B1F7E5EEF4E0949108C095
:105730008091C00085FFFCCF9093C6003196949174
:105740009923B1F78091C00085FFFCCF8AE0809358
:10575000C6008BED94E00C9491B00895F8940E94EB
:105760002A7C5F9A8A9A8FB7F89490910801916089
:10577000909308018FBF479AE4EDF4E0949108C03C
:105780008091C00085FFFCCF9093C6003196949124
:105790009923B1F7E4E6F5E0949108C08091C00048
:1057A00085FFFCCF9093C600319694919923B1F771
:1057B0008091C00085FFFCCF8AE08093C6008BE516
:1057C00095E00E94A0B0FFCF0E9485CB6093770642
:1057D000709378068093790690937A06E091A006FC
:1057E000F091A106EE55F94F80818823A9F4E3E8F2
:1057F000F5E0949108C08091C00085FFFCCF9093A4
:10580000C600319694919923B1F78091C00085FF2D
:10581000FCCF8AE08093C6000895EF92FF920F9329
:105820001F930E9485CBE0907B06F0907C06009150
:105830007D0610917E062091770630917806409182
:10584000790650917A06621B730B840B950BE61652
:10585000F7060807190730F4E114F10401051105F2
:1058600009F07CDF8091510390915203A091530382
:10587000B09154030097A105B10561F10E9485CB59
:1058800020917706309178064091790650917A06FA
:10589000621B730B840B950B2091510330915203C3
:1058A000409153035091540326173707480759076F
:1058B00088F49091950C8091960C981759F45F9A02
:1058C0008A9A9FB7F89480910801816080930801BB
:1058D0009FBF479A0E9460521F910F91FF90EF90D7
:1058E00008956F927F928F929F92AF92BF92CF92C4
:1058F000DF92EF92FF920F931F93F82E60917F0635
:105900007091800680918106909182062091830695
:105910003091840640918506509186060E949DD163
:105920003B014C0100D000D00DB71EB70F5F1F4FD9
:105930006091410370914203882777FD8095982FED
:105940000E9424D020915503309156034091570373
:10595000509158030E9462D220E030E040E752E4C8
:105960000E9489CF20E030E048EC52E40E9489CFC9
:105970005B016C01F8016082718282829382F48201
:105980008091620685838AE396E06BE876E04FE7D4
:1059900056E020E001E032E0E32E0E944E4B809181
:1059A0008B0690918C06A0918D06B0918E06809307
:1059B0003A0690933B06A0933C06B0933D06809137
:1059C0008F0690919006A0919106B09192068093D7
:1059D0003E0690933F06A0934006B0934106809107
:1059E000930690919406A0919506B09196068093A7
:1059F000420690934306A0934406B09345068091D7
:105A0000970690919806A0919906B0919A06809376
:105A1000460690934706A0934806B09349068DB773
:105A20009EB706960FB6F8949EBF0FBE8DBF0E941C
:105A300085CB609377067093780680937906909370
:105A40007A061F910F91FF90EF90DF90CF90BF905B
:105A5000AF909F908F907F906F900895CF92DF923C
:105A6000EF92FF920F931F938BE896E03DDD0E942B
:105A700085CB609377067093780680937906909330
:105A80007A0660913A0670913B0680913C069091AF
:105A90003D0620918B0630918C0640918D065091E9
:105AA0008E060E9482CF882309F07AC060913E065C
:105AB00070913F06809140069091410620918F069B
:105AC0003091900640919106509192060E9482CFAB
:105AD000882309F065C06091550370915603809149
